{
  "address": "0x8329E73665094B16c566C77A23703F1F2630283d",
  "abi": [
    {
      "inputs": [
        {
          "internalType": "contract IDaiMock",
          "name": "dai_",
          "type": "address"
        },
        {
          "internalType": "uint256",
          "name": "maturity_",
          "type": "uint256"
        }
      ],
      "stateMutability": "nonpayable",
      "type": "constructor"
    },
    {
      "anonymous": false,
      "inputs": [
        {
          "indexed": true,
          "internalType": "address",
          "name": "owner",
          "type": "address"
        },
        {
          "indexed": true,
          "internalType": "address",
          "name": "spender",
          "type": "address"
        },
        {
          "indexed": false,
          "internalType": "uint256",
          "name": "value",
          "type": "uint256"
        }
      ],
      "name": "Approval",
      "type": "event"
    },
    {
      "anonymous": false,
      "inputs": [
        {
          "indexed": true,
          "internalType": "address",
          "name": "from",
          "type": "address"
        },
        {
          "indexed": true,
          "internalType": "address",
          "name": "to",
          "type": "address"
        },
        {
          "indexed": false,
          "internalType": "uint256",
          "name": "value",
          "type": "uint256"
        }
      ],
      "name": "Transfer",
      "type": "event"
    },
    {
      "inputs": [],
      "name": "DOMAIN_SEPARATOR",
      "outputs": [
        {
          "internalType": "bytes32",
          "name": "",
          "type": "bytes32"
        }
      ],
      "stateMutability": "view",
      "type": "function"
    },
    {
      "inputs": [],
      "name": "PERMIT_TYPEHASH",
      "outputs": [
        {
          "internalType": "bytes32",
          "name": "",
          "type": "bytes32"
        }
      ],
      "stateMutability": "view",
      "type": "function"
    },
    {
      "inputs": [
        {
          "internalType": "address",
          "name": "owner",
          "type": "address"
        },
        {
          "internalType": "address",
          "name": "spender",
          "type": "address"
        }
      ],
      "name": "allowance",
      "outputs": [
        {
          "internalType": "uint256",
          "name": "",
          "type": "uint256"
        }
      ],
      "stateMutability": "view",
      "type": "function"
    },
    {
      "inputs": [
        {
          "internalType": "address",
          "name": "spender",
          "type": "address"
        },
        {
          "internalType": "uint256",
          "name": "amount",
          "type": "uint256"
        }
      ],
      "name": "approve",
      "outputs": [
        {
          "internalType": "bool",
          "name": "",
          "type": "bool"
        }
      ],
      "stateMutability": "nonpayable",
      "type": "function"
    },
    {
      "inputs": [
        {
          "internalType": "address",
          "name": "account",
          "type": "address"
        }
      ],
      "name": "balanceOf",
      "outputs": [
        {
          "internalType": "uint256",
          "name": "",
          "type": "uint256"
        }
      ],
      "stateMutability": "view",
      "type": "function"
    },
    {
      "inputs": [
        {
          "internalType": "address",
          "name": "from",
          "type": "address"
        },
        {
          "internalType": "uint256",
          "name": "amount",
          "type": "uint256"
        }
      ],
      "name": "burn",
      "outputs": [],
      "stateMutability": "nonpayable",
      "type": "function"
    },
    {
      "inputs": [],
      "name": "dai",
      "outputs": [
        {
          "internalType": "contract IDaiMock",
          "name": "",
          "type": "address"
        }
      ],
      "stateMutability": "view",
      "type": "function"
    },
    {
      "inputs": [],
      "name": "decimals",
      "outputs": [
        {
          "internalType": "uint8",
          "name": "",
          "type": "uint8"
        }
      ],
      "stateMutability": "view",
      "type": "function"
    },
    {
      "inputs": [
        {
          "internalType": "address",
          "name": "spender",
          "type": "address"
        },
        {
          "internalType": "uint256",
          "name": "subtractedValue",
          "type": "uint256"
        }
      ],
      "name": "decreaseAllowance",
      "outputs": [
        {
          "internalType": "bool",
          "name": "",
          "type": "bool"
        }
      ],
      "stateMutability": "nonpayable",
      "type": "function"
    },
    {
      "inputs": [
        {
          "internalType": "address",
          "name": "spender",
          "type": "address"
        },
        {
          "internalType": "uint256",
          "name": "addedValue",
          "type": "uint256"
        }
      ],
      "name": "increaseAllowance",
      "outputs": [
        {
          "internalType": "bool",
          "name": "",
          "type": "bool"
        }
      ],
      "stateMutability": "nonpayable",
      "type": "function"
    },
    {
      "inputs": [],
      "name": "maturity",
      "outputs": [
        {
          "internalType": "uint256",
          "name": "",
          "type": "uint256"
        }
      ],
      "stateMutability": "view",
      "type": "function"
    },
    {
      "inputs": [
        {
          "internalType": "address",
          "name": "to",
          "type": "address"
        },
        {
          "internalType": "uint256",
          "name": "amount",
          "type": "uint256"
        }
      ],
      "name": "mint",
      "outputs": [],
      "stateMutability": "nonpayable",
      "type": "function"
    },
    {
      "inputs": [],
      "name": "name",
      "outputs": [
        {
          "internalType": "string",
          "name": "",
          "type": "string"
        }
      ],
      "stateMutability": "view",
      "type": "function"
    },
    {
      "inputs": [
        {
          "internalType": "address",
          "name": "",
          "type": "address"
        }
      ],
      "name": "nonces",
      "outputs": [
        {
          "internalType": "uint256",
          "name": "",
          "type": "uint256"
        }
      ],
      "stateMutability": "view",
      "type": "function"
    },
    {
      "inputs": [
        {
          "internalType": "address",
          "name": "owner",
          "type": "address"
        },
        {
          "internalType": "address",
          "name": "spender",
          "type": "address"
        },
        {
          "internalType": "uint256",
          "name": "amount",
          "type": "uint256"
        },
        {
          "internalType": "uint256",
          "name": "deadline",
          "type": "uint256"
        },
        {
          "internalType": "uint8",
          "name": "v",
          "type": "uint8"
        },
        {
          "internalType": "bytes32",
          "name": "r",
          "type": "bytes32"
        },
        {
          "internalType": "bytes32",
          "name": "s",
          "type": "bytes32"
        }
      ],
      "name": "permit",
      "outputs": [],
      "stateMutability": "nonpayable",
      "type": "function"
    },
    {
      "inputs": [
        {
          "internalType": "address",
          "name": "from",
          "type": "address"
        },
        {
          "internalType": "address",
          "name": "to",
          "type": "address"
        },
        {
          "internalType": "uint256",
          "name": "amount",
          "type": "uint256"
        }
      ],
      "name": "redeem",
      "outputs": [],
      "stateMutability": "nonpayable",
      "type": "function"
    },
    {
      "inputs": [],
      "name": "symbol",
      "outputs": [
        {
          "internalType": "string",
          "name": "",
          "type": "string"
        }
      ],
      "stateMutability": "view",
      "type": "function"
    },
    {
      "inputs": [],
      "name": "totalSupply",
      "outputs": [
        {
          "internalType": "uint256",
          "name": "",
          "type": "uint256"
        }
      ],
      "stateMutability": "view",
      "type": "function"
    },
    {
      "inputs": [
        {
          "internalType": "address",
          "name": "recipient",
          "type": "address"
        },
        {
          "internalType": "uint256",
          "name": "amount",
          "type": "uint256"
        }
      ],
      "name": "transfer",
      "outputs": [
        {
          "internalType": "bool",
          "name": "",
          "type": "bool"
        }
      ],
      "stateMutability": "nonpayable",
      "type": "function"
    },
    {
      "inputs": [
        {
          "internalType": "address",
          "name": "sender",
          "type": "address"
        },
        {
          "internalType": "address",
          "name": "recipient",
          "type": "address"
        },
        {
          "internalType": "uint256",
          "name": "amount",
          "type": "uint256"
        }
      ],
      "name": "transferFrom",
      "outputs": [
        {
          "internalType": "bool",
          "name": "",
          "type": "bool"
        }
      ],
      "stateMutability": "nonpayable",
      "type": "function"
    }
  ],
  "transactionHash": "0x60087a2f455afcfc9f57cb5fc96d0de6eec2aa91dd78dca94e25060527d07437",
  "args": [
    "0x004BE0E6Ee86e3753C31D88E7D51160655D02DCB",
    1617235199
  ],
  "solcInputHash": "646e61c55b1195451ac18ef6ef31df79",
  "bytecode": "0x60c06040527f6e71edae12b1b97f4d1f60370fef10105fa2faae0126114a169c64845d6126c96080523480156200003557600080fd5b50604051620017cd380380620017cd833981810160405260408110156200005b57600080fd5b508051602091820151604080518082018252600481526315195cdd60e21b81860190815282518084019093526003808452621514d560ea1b96840196909652815194959394919384928492620000b29291620001a1565b508051620000c8906004906020840190620001a1565b50506005805460ff191660121790555050805160209182012060408051808201825260018152603160f81b9084015280517f8b73c3c69bb8fe3d512ecc4cf759cc79239f7b179b0ffacaa9a75d522b39400f81850152808201929092527fc89efdaa54c0f20c7adf612882df0950f5a951637e0307cdcb4c672f298b8bc660608301524660808301523060a08084019190915281518084038201815260c0909301909152815191909201209052600780546001600160a01b03939093166001600160a01b0319909316929092179091556008556200024d565b828054600181600116156101000203166002900490600052602060002090601f016020900481019282620001d9576000855562000224565b82601f10620001f457805160ff191683800117855562000224565b8280016001018555821562000224579182015b828111156200022457825182559160200191906001019062000207565b506200023292915062000236565b5090565b5b8082111562000232576000815560010162000237565b60805160a0516115526200027b600039806107b75280610abc52508061078a5280610a3452506115526000f3fe608060405234801561001057600080fd5b506004361061016c5760003560e01c806340c10f19116100cd578063a457c2d711610081578063d505accf11610066578063d505accf1461049e578063dd62ed3e146104fc578063f4b9fa75146105375761016c565b8063a457c2d71461042c578063a9059cbb146104655761016c565b80637ecebe00116100b25780637ecebe00146103b857806395d89b41146103eb5780639dc29fac146103f35761016c565b806340c10f191461034c57806370a08231146103855761016c565b806323b872dd11610124578063313ce56711610109578063313ce567146102ed5780633644e5151461030b57806339509351146103135761016c565b806323b872dd146102a257806330adf81f146102e55761016c565b80630e6dfcd5116101555780630e6dfcd51461023b57806318160ddd14610280578063204f83f91461029a5761016c565b806306fdde0314610171578063095ea7b3146101ee575b600080fd5b610179610568565b6040805160208082528351818301528351919283929083019185019080838360005b838110156101b357818101518382015260200161019b565b50505050905090810190601f1680156101e05780820380516001836020036101000a031916815260200191505b509250505060405180910390f35b6102276004803603604081101561020457600080fd5b5073ffffffffffffffffffffffffffffffffffffffff813516906020013561061c565b604080519115158252519081900360200190f35b61027e6004803603606081101561025157600080fd5b5073ffffffffffffffffffffffffffffffffffffffff813581169160208101359091169060400135610639565b005b6102886106db565b60408051918252519081900360200190f35b6102886106e1565b610227600480360360608110156102b857600080fd5b5073ffffffffffffffffffffffffffffffffffffffff8135811691602081013590911690604001356106e7565b610288610788565b6102f56107ac565b6040805160ff9092168252519081900360200190f35b6102886107b5565b6102276004803603604081101561032957600080fd5b5073ffffffffffffffffffffffffffffffffffffffff81351690602001356107d9565b61027e6004803603604081101561036257600080fd5b5073ffffffffffffffffffffffffffffffffffffffff8135169060200135610834565b6102886004803603602081101561039b57600080fd5b503573ffffffffffffffffffffffffffffffffffffffff16610842565b610288600480360360208110156103ce57600080fd5b503573ffffffffffffffffffffffffffffffffffffffff1661086a565b61017961087c565b61027e6004803603604081101561040957600080fd5b5073ffffffffffffffffffffffffffffffffffffffff81351690602001356108fb565b6102276004803603604081101561044257600080fd5b5073ffffffffffffffffffffffffffffffffffffffff8135169060200135610905565b6102276004803603604081101561047b57600080fd5b5073ffffffffffffffffffffffffffffffffffffffff813516906020013561097a565b61027e600480360360e08110156104b457600080fd5b5073ffffffffffffffffffffffffffffffffffffffff813581169160208101359091169060408101359060608101359060ff6080820135169060a08101359060c0013561098e565b6102886004803603604081101561051257600080fd5b5073ffffffffffffffffffffffffffffffffffffffff81358116916020013516610c7b565b61053f610cb3565b6040805173ffffffffffffffffffffffffffffffffffffffff9092168252519081900360200190f35b60038054604080516020601f60027fffffffffffffffffffffffffffffffffffffffffffffffffffffffffffffffff6101006001881615020190951694909404938401819004810282018101909252828152606093909290918301828280156106125780601f106105e757610100808354040283529160200191610612565b820191906000526020600020905b8154815290600101906020018083116105f557829003601f168201915b5050505050905090565b6000610630610629610ccf565b8484610cd3565b50600192915050565b6106438382610e1a565b600754604080517f40c10f1900000000000000000000000000000000000000000000000000000000815273ffffffffffffffffffffffffffffffffffffffff858116600483015260248201859052915191909216916340c10f1991604480830192600092919082900301818387803b1580156106be57600080fd5b505af11580156106d2573d6000803e3d6000fd5b50505050505050565b60025490565b60085481565b60006106f4848484610f64565b61077e84610700610ccf565b610779856040518060600160405280602881526020016114666028913973ffffffffffffffffffffffffffffffffffffffff8a1660009081526001602052604081209061074b610ccf565b73ffffffffffffffffffffffffffffffffffffffff1681526020810191909152604001600020549190611134565b610cd3565b5060019392505050565b7f000000000000000000000000000000000000000000000000000000000000000081565b60055460ff1690565b7f000000000000000000000000000000000000000000000000000000000000000081565b60006106306107e6610ccf565b8461077985600160006107f7610ccf565b73ffffffffffffffffffffffffffffffffffffffff908116825260208083019390935260409182016000908120918c1681529252902054906111e5565b61083e8282611260565b5050565b73ffffffffffffffffffffffffffffffffffffffff1660009081526020819052604090205490565b60066020526000908152604090205481565b60048054604080516020601f60027fffffffffffffffffffffffffffffffffffffffffffffffffffffffffffffffff6101006001881615020190951694909404938401819004810282018101909252828152606093909290918301828280156106125780601f106105e757610100808354040283529160200191610612565b61083e8282610e1a565b6000610630610912610ccf565b84610779856040518060600160405280602581526020016114f8602591396001600061093c610ccf565b73ffffffffffffffffffffffffffffffffffffffff908116825260208083019390935260409182016000908120918d16815292529020549190611134565b6000610630610987610ccf565b8484610f64565b428410156109fd57604080517f08c379a000000000000000000000000000000000000000000000000000000000815260206004820152601d60248201527f45524332305065726d69743a206578706972656420646561646c696e65000000604482015290519081900360640190fd5b73ffffffffffffffffffffffffffffffffffffffff80881660008181526006602090815260408083208054600180820190925582517f00000000000000000000000000000000000000000000000000000000000000008186015280840196909652958c166060860152608085018b905260a085019590955260c08085018a90528151808603909101815260e0850182528051908301207f19010000000000000000000000000000000000000000000000000000000000006101008601527f000000000000000000000000000000000000000000000000000000000000000061010286015261012280860182905282518087039091018152610142860180845281519185019190912090859052610162860180845281905260ff8a166101828701526101a286018990526101c2860188905291519095919491926101e28084019391927fffffffffffffffffffffffffffffffffffffffffffffffffffffffffffffffe081019281900390910190855afa158015610b7e573d6000803e3d6000fd5b50506040517fffffffffffffffffffffffffffffffffffffffffffffffffffffffffffffffe0015191505073ffffffffffffffffffffffffffffffffffffffff811615801590610bf957508973ffffffffffffffffffffffffffffffffffffffff168173ffffffffffffffffffffffffffffffffffffffff16145b610c6457604080517f08c379a000000000000000000000000000000000000000000000000000000000815260206004820152601e60248201527f45524332305065726d69743a20696e76616c6964207369676e61747572650000604482015290519081900360640190fd5b610c6f8a8a8a610cd3565b50505050505050505050565b73ffffffffffffffffffffffffffffffffffffffff918216600090815260016020908152604080832093909416825291909152205490565b60075473ffffffffffffffffffffffffffffffffffffffff1681565b3390565b73ffffffffffffffffffffffffffffffffffffffff8316610d3f576040517f08c379a00000000000000000000000000000000000000000000000000000000081526004018080602001828103825260248152602001806114d46024913960400191505060405180910390fd5b73ffffffffffffffffffffffffffffffffffffffff8216610dab576040517f08c379a000000000000000000000000000000000000000000000000000000000815260040180806020018281038252602281526020018061141e6022913960400191505060405180910390fd5b73ffffffffffffffffffffffffffffffffffffffff808416600081815260016020908152604080832094871680845294825291829020859055815185815291517f8c5be1e5ebec7d5bd14f71427d1e84f3dd0314c0f7b2291e5b200ac8c7c3b9259281900390910190a3505050565b73ffffffffffffffffffffffffffffffffffffffff8216610e86576040517f08c379a000000000000000000000000000000000000000000000000000000000815260040180806020018281038252602181526020018061148e6021913960400191505060405180910390fd5b610e9282600083611391565b610edc816040518060600160405280602281526020016113fc6022913973ffffffffffffffffffffffffffffffffffffffff85166000908152602081905260409020549190611134565b73ffffffffffffffffffffffffffffffffffffffff8316600090815260208190526040902055600254610f0f9082611396565b60025560408051828152905160009173ffffffffffffffffffffffffffffffffffffffff8516917fddf252ad1be2c89b69c2b068fc378daa952ba7f163c4a11628f55a4df523b3ef9181900360200190a35050565b73ffffffffffffffffffffffffffffffffffffffff8316610fd0576040517f08c379a00000000000000000000000000000000000000000000000000000000081526004018080602001828103825260258152602001806114af6025913960400191505060405180910390fd5b73ffffffffffffffffffffffffffffffffffffffff821661103c576040517f08c379a00000000000000000000000000000000000000000000000000000000081526004018080602001828103825260238152602001806113d96023913960400191505060405180910390fd5b611047838383611391565b611091816040518060600160405280602681526020016114406026913973ffffffffffffffffffffffffffffffffffffffff86166000908152602081905260409020549190611134565b73ffffffffffffffffffffffffffffffffffffffff80851660009081526020819052604080822093909355908416815220546110cd90826111e5565b73ffffffffffffffffffffffffffffffffffffffff8084166000818152602081815260409182902094909455805185815290519193928716927fddf252ad1be2c89b69c2b068fc378daa952ba7f163c4a11628f55a4df523b3ef92918290030190a3505050565b600081848411156111dd576040517f08c379a00000000000000000000000000000000000000000000000000000000081526004018080602001828103825283818151815260200191508051906020019080838360005b838110156111a257818101518382015260200161118a565b50505050905090810190601f1680156111cf5780820380516001836020036101000a031916815260200191505b509250505060405180910390fd5b505050900390565b60008282018381101561125957604080517f08c379a000000000000000000000000000000000000000000000000000000000815260206004820152601b60248201527f536166654d6174683a206164646974696f6e206f766572666c6f770000000000604482015290519081900360640190fd5b9392505050565b73ffffffffffffffffffffffffffffffffffffffff82166112e257604080517f08c379a000000000000000000000000000000000000000000000000000000000815260206004820152601f60248201527f45524332303a206d696e7420746f20746865207a65726f206164647265737300604482015290519081900360640190fd5b6112ee60008383611391565b6002546112fb90826111e5565b60025573ffffffffffffffffffffffffffffffffffffffff821660009081526020819052604090205461132e90826111e5565b73ffffffffffffffffffffffffffffffffffffffff83166000818152602081815260408083209490945583518581529351929391927fddf252ad1be2c89b69c2b068fc378daa952ba7f163c4a11628f55a4df523b3ef9281900390910190a35050565b505050565b600061125983836040518060400160405280601e81526020017f536166654d6174683a207375627472616374696f6e206f766572666c6f77000081525061113456fe45524332303a207472616e7366657220746f20746865207a65726f206164647265737345524332303a206275726e20616d6f756e7420657863656564732062616c616e636545524332303a20617070726f766520746f20746865207a65726f206164647265737345524332303a207472616e7366657220616d6f756e7420657863656564732062616c616e636545524332303a207472616e7366657220616d6f756e74206578636565647320616c6c6f77616e636545524332303a206275726e2066726f6d20746865207a65726f206164647265737345524332303a207472616e736665722066726f6d20746865207a65726f206164647265737345524332303a20617070726f76652066726f6d20746865207a65726f206164647265737345524332303a2064656372656173656420616c6c6f77616e63652062656c6f77207a65726fa264697066735822122062bc89f50a14fd07cca3f0dc684e48653d2d25256792b6c9bcf29a5f9465ac6c64736f6c63430007050033",
  "devdoc": {
    "kind": "dev",
    "methods": {
      "allowance(address,address)": {
        "details": "See {IERC20-allowance}."
      },
      "approve(address,uint256)": {
        "details": "See {IERC20-approve}. Requirements: - `spender` cannot be the zero address."
      },
      "balanceOf(address)": {
        "details": "See {IERC20-balanceOf}."
      },
      "decimals()": {
        "details": "Returns the number of decimals used to get its user representation. For example, if `decimals` equals `2`, a balance of `505` tokens should be displayed to a user as `5,05` (`505 / 10 ** 2`). Tokens usually opt for a value of 18, imitating the relationship between Ether and Wei. This is the value {ERC20} uses, unless {_setupDecimals} is called. NOTE: This information is only used for _display_ purposes: it in no way affects any of the arithmetic of the contract, including {IERC20-balanceOf} and {IERC20-transfer}."
      },
      "decreaseAllowance(address,uint256)": {
        "details": "Atomically decreases the allowance granted to `spender` by the caller. This is an alternative to {approve} that can be used as a mitigation for problems described in {IERC20-approve}. Emits an {Approval} event indicating the updated allowance. Requirements: - `spender` cannot be the zero address. - `spender` must have allowance for the caller of at least `subtractedValue`."
      },
      "increaseAllowance(address,uint256)": {
        "details": "Atomically increases the allowance granted to `spender` by the caller. This is an alternative to {approve} that can be used as a mitigation for problems described in {IERC20-approve}. Emits an {Approval} event indicating the updated allowance. Requirements: - `spender` cannot be the zero address."
      },
      "name()": {
        "details": "Returns the name of the token."
      },
      "permit(address,address,uint256,uint256,uint8,bytes32,bytes32)": {
        "details": "See {IERC2612-permit}. In cases where the free option is not a concern, deadline can simply be set to uint(-1), so it should be seen as an optional parameter"
      },
      "symbol()": {
        "details": "Returns the symbol of the token, usually a shorter version of the name."
      },
      "totalSupply()": {
        "details": "See {IERC20-totalSupply}."
      },
      "transfer(address,uint256)": {
        "details": "See {IERC20-transfer}. Requirements: - `recipient` cannot be the zero address. - the caller must have a balance of at least `amount`."
      },
      "transferFrom(address,address,uint256)": {
        "details": "See {IERC20-transferFrom}. Emits an {Approval} event indicating the updated allowance. This is not required by the EIP. See the note at the beginning of {ERC20}. Requirements: - `sender` and `recipient` cannot be the zero address. - `sender` must have a balance of at least `amount`. - the caller must have allowance for ``sender``'s tokens of at least `amount`."
      }
    },
    "version": 1
  },
  "userdoc": {
    "kind": "user",
    "methods": {},
    "version": 1
  },
  "storageLayout": {
    "storage": [
      {
        "astId": 235,
        "contract": "contracts/mocks/FYDaiMock.sol:FYDaiMock",
        "label": "_balances",
        "offset": 0,
        "slot": "0",
        "type": "t_mapping(t_address,t_uint256)"
      },
      {
        "astId": 241,
        "contract": "contracts/mocks/FYDaiMock.sol:FYDaiMock",
        "label": "_allowances",
        "offset": 0,
        "slot": "1",
        "type": "t_mapping(t_address,t_mapping(t_address,t_uint256))"
      },
      {
        "astId": 243,
        "contract": "contracts/mocks/FYDaiMock.sol:FYDaiMock",
        "label": "_totalSupply",
        "offset": 0,
        "slot": "2",
        "type": "t_uint256"
      },
      {
        "astId": 245,
        "contract": "contracts/mocks/FYDaiMock.sol:FYDaiMock",
        "label": "_name",
        "offset": 0,
        "slot": "3",
        "type": "t_string_storage"
      },
      {
        "astId": 247,
        "contract": "contracts/mocks/FYDaiMock.sol:FYDaiMock",
        "label": "_symbol",
        "offset": 0,
        "slot": "4",
        "type": "t_string_storage"
      },
      {
        "astId": 249,
        "contract": "contracts/mocks/FYDaiMock.sol:FYDaiMock",
        "label": "_decimals",
        "offset": 0,
        "slot": "5",
        "type": "t_uint8"
      },
      {
        "astId": 8068,
        "contract": "contracts/mocks/FYDaiMock.sol:FYDaiMock",
        "label": "nonces",
        "offset": 0,
        "slot": "6",
        "type": "t_mapping(t_address,t_uint256)"
      },
      {
        "astId": 8596,
        "contract": "contracts/mocks/FYDaiMock.sol:FYDaiMock",
        "label": "dai",
        "offset": 0,
        "slot": "7",
        "type": "t_contract(IDaiMock)8306"
      },
      {
        "astId": 8598,
        "contract": "contracts/mocks/FYDaiMock.sol:FYDaiMock",
        "label": "maturity",
        "offset": 0,
        "slot": "8",
        "type": "t_uint256"
      }
    ],
    "types": {
      "t_address": {
        "encoding": "inplace",
        "label": "address",
        "numberOfBytes": "20"
      },
      "t_contract(IDaiMock)8306": {
        "encoding": "inplace",
        "label": "contract IDaiMock",
        "numberOfBytes": "20"
      },
      "t_mapping(t_address,t_mapping(t_address,t_uint256))": {
        "encoding": "mapping",
        "key": "t_address",
        "label": "mapping(address => mapping(address => uint256))",
        "numberOfBytes": "32",
        "value": "t_mapping(t_address,t_uint256)"
      },
      "t_mapping(t_address,t_uint256)": {
        "encoding": "mapping",
        "key": "t_address",
        "label": "mapping(address => uint256)",
        "numberOfBytes": "32",
        "value": "t_uint256"
      },
      "t_string_storage": {
        "encoding": "bytes",
        "label": "string",
        "numberOfBytes": "32"
      },
      "t_uint256": {
        "encoding": "inplace",
        "label": "uint256",
        "numberOfBytes": "32"
      },
      "t_uint8": {
        "encoding": "inplace",
        "label": "uint8",
        "numberOfBytes": "1"
      }
    }
  }
}