{
  "address": "0x72A6B720656eC62c4e7f52095d243c8C479e3e19",
  "abi": [
    {
      "inputs": [
        {
          "internalType": "address",
          "name": "dai_",
          "type": "address"
        },
        {
          "internalType": "address",
          "name": "fyDai_",
          "type": "address"
        },
        {
          "internalType": "string",
          "name": "name_",
          "type": "string"
        },
        {
          "internalType": "string",
          "name": "symbol_",
          "type": "string"
        }
      ],
      "stateMutability": "nonpayable",
      "type": "constructor"
    },
    {
      "anonymous": false,
      "inputs": [
        {
          "indexed": true,
          "internalType": "address",
          "name": "owner",
          "type": "address"
        },
        {
          "indexed": true,
          "internalType": "address",
          "name": "spender",
          "type": "address"
        },
        {
          "indexed": false,
          "internalType": "uint256",
          "name": "value",
          "type": "uint256"
        }
      ],
      "name": "Approval",
      "type": "event"
    },
    {
      "anonymous": false,
      "inputs": [
        {
          "indexed": true,
          "internalType": "address",
          "name": "user",
          "type": "address"
        },
        {
          "indexed": true,
          "internalType": "address",
          "name": "delegate",
          "type": "address"
        },
        {
          "indexed": false,
          "internalType": "bool",
          "name": "enabled",
          "type": "bool"
        }
      ],
      "name": "Delegate",
      "type": "event"
    },
    {
      "anonymous": false,
      "inputs": [
        {
          "indexed": false,
          "internalType": "uint256",
          "name": "maturity",
          "type": "uint256"
        },
        {
          "indexed": true,
          "internalType": "address",
          "name": "from",
          "type": "address"
        },
        {
          "indexed": true,
          "internalType": "address",
          "name": "to",
          "type": "address"
        },
        {
          "indexed": false,
          "internalType": "int256",
          "name": "daiTokens",
          "type": "int256"
        },
        {
          "indexed": false,
          "internalType": "int256",
          "name": "fyDaiTokens",
          "type": "int256"
        },
        {
          "indexed": false,
          "internalType": "int256",
          "name": "poolTokens",
          "type": "int256"
        }
      ],
      "name": "Liquidity",
      "type": "event"
    },
    {
      "anonymous": false,
      "inputs": [
        {
          "indexed": false,
          "internalType": "uint256",
          "name": "maturity",
          "type": "uint256"
        },
        {
          "indexed": true,
          "internalType": "address",
          "name": "from",
          "type": "address"
        },
        {
          "indexed": true,
          "internalType": "address",
          "name": "to",
          "type": "address"
        },
        {
          "indexed": false,
          "internalType": "int256",
          "name": "daiTokens",
          "type": "int256"
        },
        {
          "indexed": false,
          "internalType": "int256",
          "name": "fyDaiTokens",
          "type": "int256"
        }
      ],
      "name": "Trade",
      "type": "event"
    },
    {
      "anonymous": false,
      "inputs": [
        {
          "indexed": true,
          "internalType": "address",
          "name": "from",
          "type": "address"
        },
        {
          "indexed": true,
          "internalType": "address",
          "name": "to",
          "type": "address"
        },
        {
          "indexed": false,
          "internalType": "uint256",
          "name": "value",
          "type": "uint256"
        }
      ],
      "name": "Transfer",
      "type": "event"
    },
    {
      "inputs": [],
      "name": "DELEGABLE_DOMAIN",
      "outputs": [
        {
          "internalType": "bytes32",
          "name": "",
          "type": "bytes32"
        }
      ],
      "stateMutability": "view",
      "type": "function"
    },
    {
      "inputs": [],
      "name": "DOMAIN_SEPARATOR",
      "outputs": [
        {
          "internalType": "bytes32",
          "name": "",
          "type": "bytes32"
        }
      ],
      "stateMutability": "view",
      "type": "function"
    },
    {
      "inputs": [],
      "name": "PERMIT_TYPEHASH",
      "outputs": [
        {
          "internalType": "bytes32",
          "name": "",
          "type": "bytes32"
        }
      ],
      "stateMutability": "view",
      "type": "function"
    },
    {
      "inputs": [],
      "name": "SIGNATURE_TYPEHASH",
      "outputs": [
        {
          "internalType": "bytes32",
          "name": "",
          "type": "bytes32"
        }
      ],
      "stateMutability": "view",
      "type": "function"
    },
    {
      "inputs": [
        {
          "internalType": "address",
          "name": "delegate",
          "type": "address"
        }
      ],
      "name": "addDelegate",
      "outputs": [],
      "stateMutability": "nonpayable",
      "type": "function"
    },
    {
      "inputs": [
        {
          "internalType": "address",
          "name": "user",
          "type": "address"
        },
        {
          "internalType": "address",
          "name": "delegate",
          "type": "address"
        },
        {
          "internalType": "uint256",
          "name": "deadline",
          "type": "uint256"
        },
        {
          "internalType": "uint8",
          "name": "v",
          "type": "uint8"
        },
        {
          "internalType": "bytes32",
          "name": "r",
          "type": "bytes32"
        },
        {
          "internalType": "bytes32",
          "name": "s",
          "type": "bytes32"
        }
      ],
      "name": "addDelegateBySignature",
      "outputs": [],
      "stateMutability": "nonpayable",
      "type": "function"
    },
    {
      "inputs": [
        {
          "internalType": "address",
          "name": "owner",
          "type": "address"
        },
        {
          "internalType": "address",
          "name": "spender",
          "type": "address"
        }
      ],
      "name": "allowance",
      "outputs": [
        {
          "internalType": "uint256",
          "name": "",
          "type": "uint256"
        }
      ],
      "stateMutability": "view",
      "type": "function"
    },
    {
      "inputs": [
        {
          "internalType": "address",
          "name": "spender",
          "type": "address"
        },
        {
          "internalType": "uint256",
          "name": "amount",
          "type": "uint256"
        }
      ],
      "name": "approve",
      "outputs": [
        {
          "internalType": "bool",
          "name": "",
          "type": "bool"
        }
      ],
      "stateMutability": "nonpayable",
      "type": "function"
    },
    {
      "inputs": [
        {
          "internalType": "address",
          "name": "account",
          "type": "address"
        }
      ],
      "name": "balanceOf",
      "outputs": [
        {
          "internalType": "uint256",
          "name": "",
          "type": "uint256"
        }
      ],
      "stateMutability": "view",
      "type": "function"
    },
    {
      "inputs": [
        {
          "internalType": "address",
          "name": "from",
          "type": "address"
        },
        {
          "internalType": "address",
          "name": "to",
          "type": "address"
        },
        {
          "internalType": "uint256",
          "name": "tokensBurned",
          "type": "uint256"
        }
      ],
      "name": "burn",
      "outputs": [
        {
          "internalType": "uint256",
          "name": "",
          "type": "uint256"
        },
        {
          "internalType": "uint256",
          "name": "",
          "type": "uint256"
        }
      ],
      "stateMutability": "nonpayable",
      "type": "function"
    },
    {
      "inputs": [
        {
          "internalType": "address",
          "name": "from",
          "type": "address"
        },
        {
          "internalType": "address",
          "name": "to",
          "type": "address"
        },
        {
          "internalType": "uint256",
          "name": "tokensBurned",
          "type": "uint256"
        }
      ],
      "name": "burnForDai",
      "outputs": [
        {
          "internalType": "uint256",
          "name": "",
          "type": "uint256"
        }
      ],
      "stateMutability": "nonpayable",
      "type": "function"
    },
    {
      "inputs": [
        {
          "internalType": "address",
          "name": "from",
          "type": "address"
        },
        {
          "internalType": "address",
          "name": "to",
          "type": "address"
        },
        {
          "internalType": "uint128",
          "name": "daiOut",
          "type": "uint128"
        }
      ],
      "name": "buyDai",
      "outputs": [
        {
          "internalType": "uint128",
          "name": "",
          "type": "uint128"
        }
      ],
      "stateMutability": "nonpayable",
      "type": "function"
    },
    {
      "inputs": [
        {
          "internalType": "uint128",
          "name": "daiOut",
          "type": "uint128"
        }
      ],
      "name": "buyDaiPreview",
      "outputs": [
        {
          "internalType": "uint128",
          "name": "",
          "type": "uint128"
        }
      ],
      "stateMutability": "view",
      "type": "function"
    },
    {
      "inputs": [
        {
          "internalType": "address",
          "name": "from",
          "type": "address"
        },
        {
          "internalType": "address",
          "name": "to",
          "type": "address"
        },
        {
          "internalType": "uint128",
          "name": "fyDaiOut",
          "type": "uint128"
        }
      ],
      "name": "buyFYDai",
      "outputs": [
        {
          "internalType": "uint128",
          "name": "",
          "type": "uint128"
        }
      ],
      "stateMutability": "nonpayable",
      "type": "function"
    },
    {
      "inputs": [
        {
          "internalType": "uint128",
          "name": "fyDaiOut",
          "type": "uint128"
        }
      ],
      "name": "buyFYDaiPreview",
      "outputs": [
        {
          "internalType": "uint128",
          "name": "",
          "type": "uint128"
        }
      ],
      "stateMutability": "view",
      "type": "function"
    },
    {
      "inputs": [],
      "name": "dai",
      "outputs": [
        {
          "internalType": "contract IERC20",
          "name": "",
          "type": "address"
        }
      ],
      "stateMutability": "view",
      "type": "function"
    },
    {
      "inputs": [],
      "name": "decimals",
      "outputs": [
        {
          "internalType": "uint8",
          "name": "",
          "type": "uint8"
        }
      ],
      "stateMutability": "view",
      "type": "function"
    },
    {
      "inputs": [
        {
          "internalType": "address",
          "name": "spender",
          "type": "address"
        },
        {
          "internalType": "uint256",
          "name": "subtractedValue",
          "type": "uint256"
        }
      ],
      "name": "decreaseAllowance",
      "outputs": [
        {
          "internalType": "bool",
          "name": "",
          "type": "bool"
        }
      ],
      "stateMutability": "nonpayable",
      "type": "function"
    },
    {
      "inputs": [
        {
          "internalType": "address",
          "name": "",
          "type": "address"
        },
        {
          "internalType": "address",
          "name": "",
          "type": "address"
        }
      ],
      "name": "delegated",
      "outputs": [
        {
          "internalType": "bool",
          "name": "",
          "type": "bool"
        }
      ],
      "stateMutability": "view",
      "type": "function"
    },
    {
      "inputs": [],
      "name": "fyDai",
      "outputs": [
        {
          "internalType": "contract IFYDai",
          "name": "",
          "type": "address"
        }
      ],
      "stateMutability": "view",
      "type": "function"
    },
    {
      "inputs": [],
      "name": "g1",
      "outputs": [
        {
          "internalType": "int128",
          "name": "",
          "type": "int128"
        }
      ],
      "stateMutability": "view",
      "type": "function"
    },
    {
      "inputs": [],
      "name": "g2",
      "outputs": [
        {
          "internalType": "int128",
          "name": "",
          "type": "int128"
        }
      ],
      "stateMutability": "view",
      "type": "function"
    },
    {
      "inputs": [],
      "name": "getDaiReserves",
      "outputs": [
        {
          "internalType": "uint128",
          "name": "",
          "type": "uint128"
        }
      ],
      "stateMutability": "view",
      "type": "function"
    },
    {
      "inputs": [],
      "name": "getFYDaiReserves",
      "outputs": [
        {
          "internalType": "uint128",
          "name": "",
          "type": "uint128"
        }
      ],
      "stateMutability": "view",
      "type": "function"
    },
    {
      "inputs": [
        {
          "internalType": "address",
          "name": "spender",
          "type": "address"
        },
        {
          "internalType": "uint256",
          "name": "addedValue",
          "type": "uint256"
        }
      ],
      "name": "increaseAllowance",
      "outputs": [
        {
          "internalType": "bool",
          "name": "",
          "type": "bool"
        }
      ],
      "stateMutability": "nonpayable",
      "type": "function"
    },
    {
      "inputs": [],
      "name": "k",
      "outputs": [
        {
          "internalType": "int128",
          "name": "",
          "type": "int128"
        }
      ],
      "stateMutability": "view",
      "type": "function"
    },
    {
      "inputs": [],
      "name": "maturity",
      "outputs": [
        {
          "internalType": "uint128",
          "name": "",
          "type": "uint128"
        }
      ],
      "stateMutability": "view",
      "type": "function"
    },
    {
      "inputs": [
        {
          "internalType": "address",
          "name": "from",
          "type": "address"
        },
        {
          "internalType": "address",
          "name": "to",
          "type": "address"
        },
        {
          "internalType": "uint256",
          "name": "daiOffered",
          "type": "uint256"
        }
      ],
      "name": "mint",
      "outputs": [
        {
          "internalType": "uint256",
          "name": "",
          "type": "uint256"
        }
      ],
      "stateMutability": "nonpayable",
      "type": "function"
    },
    {
      "inputs": [
        {
          "internalType": "address",
          "name": "from",
          "type": "address"
        },
        {
          "internalType": "address",
          "name": "to",
          "type": "address"
        },
        {
          "internalType": "uint256",
          "name": "fyDaiToBuy",
          "type": "uint256"
        }
      ],
      "name": "mintWithDai",
      "outputs": [
        {
          "internalType": "uint256",
          "name": "",
          "type": "uint256"
        },
        {
          "internalType": "uint256",
          "name": "",
          "type": "uint256"
        }
      ],
      "stateMutability": "nonpayable",
      "type": "function"
    },
    {
      "inputs": [],
      "name": "name",
      "outputs": [
        {
          "internalType": "string",
          "name": "",
          "type": "string"
        }
      ],
      "stateMutability": "view",
      "type": "function"
    },
    {
      "inputs": [
        {
          "internalType": "address",
          "name": "",
          "type": "address"
        }
      ],
      "name": "nonces",
      "outputs": [
        {
          "internalType": "uint256",
          "name": "",
          "type": "uint256"
        }
      ],
      "stateMutability": "view",
      "type": "function"
    },
    {
      "inputs": [
        {
          "internalType": "address",
          "name": "owner",
          "type": "address"
        },
        {
          "internalType": "address",
          "name": "spender",
          "type": "address"
        },
        {
          "internalType": "uint256",
          "name": "amount",
          "type": "uint256"
        },
        {
          "internalType": "uint256",
          "name": "deadline",
          "type": "uint256"
        },
        {
          "internalType": "uint8",
          "name": "v",
          "type": "uint8"
        },
        {
          "internalType": "bytes32",
          "name": "r",
          "type": "bytes32"
        },
        {
          "internalType": "bytes32",
          "name": "s",
          "type": "bytes32"
        }
      ],
      "name": "permit",
      "outputs": [],
      "stateMutability": "nonpayable",
      "type": "function"
    },
    {
      "inputs": [
        {
          "internalType": "address",
          "name": "delegate",
          "type": "address"
        }
      ],
      "name": "revokeDelegate",
      "outputs": [],
      "stateMutability": "nonpayable",
      "type": "function"
    },
    {
      "inputs": [
        {
          "internalType": "address",
          "name": "from",
          "type": "address"
        },
        {
          "internalType": "address",
          "name": "to",
          "type": "address"
        },
        {
          "internalType": "uint128",
          "name": "daiIn",
          "type": "uint128"
        }
      ],
      "name": "sellDai",
      "outputs": [
        {
          "internalType": "uint128",
          "name": "",
          "type": "uint128"
        }
      ],
      "stateMutability": "nonpayable",
      "type": "function"
    },
    {
      "inputs": [
        {
          "internalType": "uint128",
          "name": "daiIn",
          "type": "uint128"
        }
      ],
      "name": "sellDaiPreview",
      "outputs": [
        {
          "internalType": "uint128",
          "name": "",
          "type": "uint128"
        }
      ],
      "stateMutability": "view",
      "type": "function"
    },
    {
      "inputs": [
        {
          "internalType": "address",
          "name": "from",
          "type": "address"
        },
        {
          "internalType": "address",
          "name": "to",
          "type": "address"
        },
        {
          "internalType": "uint128",
          "name": "fyDaiIn",
          "type": "uint128"
        }
      ],
      "name": "sellFYDai",
      "outputs": [
        {
          "internalType": "uint128",
          "name": "",
          "type": "uint128"
        }
      ],
      "stateMutability": "nonpayable",
      "type": "function"
    },
    {
      "inputs": [
        {
          "internalType": "uint128",
          "name": "fyDaiIn",
          "type": "uint128"
        }
      ],
      "name": "sellFYDaiPreview",
      "outputs": [
        {
          "internalType": "uint128",
          "name": "",
          "type": "uint128"
        }
      ],
      "stateMutability": "view",
      "type": "function"
    },
    {
      "inputs": [
        {
          "internalType": "address",
          "name": "",
          "type": "address"
        }
      ],
      "name": "signatureCount",
      "outputs": [
        {
          "internalType": "uint256",
          "name": "",
          "type": "uint256"
        }
      ],
      "stateMutability": "view",
      "type": "function"
    },
    {
      "inputs": [],
      "name": "symbol",
      "outputs": [
        {
          "internalType": "string",
          "name": "",
          "type": "string"
        }
      ],
      "stateMutability": "view",
      "type": "function"
    },
    {
      "inputs": [],
      "name": "totalSupply",
      "outputs": [
        {
          "internalType": "uint256",
          "name": "",
          "type": "uint256"
        }
      ],
      "stateMutability": "view",
      "type": "function"
    },
    {
      "inputs": [
        {
          "internalType": "address",
          "name": "recipient",
          "type": "address"
        },
        {
          "internalType": "uint256",
          "name": "amount",
          "type": "uint256"
        }
      ],
      "name": "transfer",
      "outputs": [
        {
          "internalType": "bool",
          "name": "",
          "type": "bool"
        }
      ],
      "stateMutability": "nonpayable",
      "type": "function"
    },
    {
      "inputs": [
        {
          "internalType": "address",
          "name": "sender",
          "type": "address"
        },
        {
          "internalType": "address",
          "name": "recipient",
          "type": "address"
        },
        {
          "internalType": "uint256",
          "name": "amount",
          "type": "uint256"
        }
      ],
      "name": "transferFrom",
      "outputs": [
        {
          "internalType": "bool",
          "name": "",
          "type": "bool"
        }
      ],
      "stateMutability": "nonpayable",
      "type": "function"
    }
  ],
  "transactionHash": "0x090609e47ac857123374d9f98d86491bd2dfc5ff95bb5b196d5c1c73b3db6780",
  "args": [
    "0x4F96Fe3b7A6Cf9725f59d353F723c1bDb64CA6Aa",
    "0x6B166d6325586c86B44f01509Fc64e649DCfE7C4",
    "fyDaiLP20Dec",
    "fyDaiLP20Dec"
  ],
  "solcInputHash": "646e61c55b1195451ac18ef6ef31df79",
  "bytecode": "0x6101206040527f0d077601844dd17f704bafff948229d27f33b57445915754dfe3d095fda2beb76080527f6e71edae12b1b97f4d1f60370fef10105fa2faae0126114a169c64845d6126c960c0523480156200005a57600080fd5b5060405162004dbc38038062004dbc833981810160405260808110156200008057600080fd5b81516020830151604080850180519151939592948301929184640100000000821115620000ac57600080fd5b908301906020820185811115620000c257600080fd5b8251640100000000811182820188101715620000dd57600080fd5b82525081516020918201929091019080838360005b838110156200010c578181015183820152602001620000f2565b50505050905090810190601f1680156200013a5780820380516001836020036101000a031916815260200191505b50604052602001805160405193929190846401000000008211156200015e57600080fd5b9083019060208201858111156200017457600080fd5b82516401000000008111828201881017156200018f57600080fd5b82525081516020918201929091019080838360005b83811015620001be578181015183820152602001620001a4565b50505050905090810190601f168015620001ec5780820380516001836020036101000a031916815260200191505b506040525050508181818181600390805190602001906200020f929190620004dd565b50805162000225906004906020840190620004dd565b506012600560006101000a81548160ff021916908360ff1602179055505050600046905060008051602062004d9c83398151915260405180604001604052806005815260200164165a595b1960da1b81525080519060200120604051806040016040528060018152602001603160f81b81525080519060200120833060405160200180868152602001858152602001848152602001838152602001826001600160a01b03168152602001955050505050506040516020818303038152906040528051906020012060a0818152505050600046905060008051602062004d9c8339815191528380519060200120604051806040016040528060018152602001603160f81b81525080519060200120833060405160200180868152602001858152602001848152602001838152602001826001600160a01b03168152602001955050505050506040516020818303038152906040528051906020012060e0818152505050505083600960006101000a8154816001600160a01b0302191690836001600160a01b0316021790555082600a60006101000a8154816001600160a01b0302191690836001600160a01b031602179055506200045e600a60009054906101000a90046001600160a01b03166001600160a01b031663204f83f96040518163ffffffff1660e01b815260040160206040518083038186803b1580156200042a57600080fd5b505afa1580156200043f573d6000803e3d6000fd5b505050506040513d60208110156200045657600080fd5b50516200047a565b60801b6001600160801b03191661010052506200057f92505050565b60006001600160801b03821115620004d9576040805162461bcd60e51b815260206004820152601360248201527f506f6f6c3a2043617374206f766572666c6f7700000000000000000000000000604482015290519081900360640190fd5b5090565b828054600181600116156101000203166002900490600052602060002090601f01602090048101928262000515576000855562000560565b82601f106200053057805160ff191683800117855562000560565b8280016001018555821562000560579182015b828111156200056057825182559160200191906001019062000543565b50620004d99291505b80821115620004d9576000815560010162000569565b60805160a05160c05160e0516101005160801c61476c6200063060003980610d6f5280610f5c528061125b52806113da528061148f52806118a25280611bc85280611d0c5280611dcd5280611fe052806120a152806121c852806125505280612a285280612d1452806134cc52806138f3528061415c52806143095250806113425280612e705250806113155280612de85250806110de52806113b452508061105e52806125e3525061476c6000f3fe608060405234801561001057600080fd5b50600436106102de5760003560e01c806385561a3411610186578063c0bd65d7116100e3578063e71bdf4111610097578063f6b911bc11610071578063f6b911bc14610951578063f6bcbd3114610987578063fa352c00146109b5576102de565b8063e71bdf41146108d4578063eab5cd2c146108fa578063f4b9fa7514610949576102de565b8063cc5783d3116100c8578063cc5783d31461080c578063d505accf14610855578063dd62ed3e146108a6576102de565b8063c0bd65d7146107ce578063c6c3bbe6146107d6576102de565b8063a9059cbb1161013a578063b4f40c611161011f578063b4f40c6114610798578063b5d832fe146107a0578063bdd8a366146107c6576102de565b8063a9059cbb14610723578063b26be9221461074f576102de565b806398ba4aec1161016b57806398ba4aec146106995780639ac95875146106c8578063a457c2d7146106f7576102de565b806385561a341461066257806395d89b4114610691576102de565b80633644e5151161023f57806360561e05116101f35780637543e39c116101cd5780637543e39c146105eb57806377d739f3146106345780637ecebe001461063c576102de565b806360561e051461055d5780636970a924146105a657806370a08231146105c5576102de565b8063459e414f11610224578063459e414f1461051e5780634e20e952146105265780635f4d07dc14610555576102de565b80633644e515146104ea57806339509351146104f2576102de565b8063204f83f911610296578063284f44441161027b578063284f4444146104a057806330adf81f146104c4578063313ce567146104cc576102de565b8063204f83f91461043d57806323b872dd1461046a576102de565b806312c63d85116102c757806312c63d85146103a057806318160ddd146103e85780631a28ff05146103f0576102de565b806306fdde03146102e3578063095ea7b314610360575b600080fd5b6102eb6109db565b6040805160208082528351818301528351919283929083019185019080838360005b8381101561032557818101518382015260200161030d565b50505050905090810190601f1680156103525780820380516001836020036101000a031916815260200191505b509250505060405180910390f35b61038c6004803603604081101561037657600080fd5b506001600160a01b038135169060200135610a8f565b604080519115158252519081900360200190f35b6103d6600480360360608110156103b657600080fd5b506001600160a01b03813581169160208101359091169060400135610aad565b60408051918252519081900360200190f35b6103d6610fd9565b61043b600480360360c081101561040657600080fd5b506001600160a01b03813581169160208101359091169060408101359060ff6060820135169060808101359060a00135610fdf565b005b610445611259565b604080516fffffffffffffffffffffffffffffffff9092168252519081900360200190f35b61038c6004803603606081101561048057600080fd5b506001600160a01b0381358116916020810135909116906040013561127d565b6104a8611304565b604080516001600160a01b039092168252519081900360200190f35b6103d6611313565b6104d4611337565b6040805160ff9092168252519081900360200190f35b6103d6611340565b61038c6004803603604081101561050857600080fd5b506001600160a01b038135169060200135611364565b6103d66113b2565b6104456004803603602081101561053c57600080fd5b50356fffffffffffffffffffffffffffffffff166113d6565b610445611591565b6104456004803603606081101561057357600080fd5b5080356001600160a01b0390811691602081013590911690604001356fffffffffffffffffffffffffffffffff1661163c565b6105ae611934565b60408051600f9290920b8252519081900360200190f35b6103d6600480360360208110156105db57600080fd5b50356001600160a01b0316611947565b6104456004803603606081101561060157600080fd5b5080356001600160a01b0390811691602081013590911690604001356fffffffffffffffffffffffffffffffff16611962565b610445611c5a565b6103d66004803603602081101561065257600080fd5b50356001600160a01b0316611cf6565b6104456004803603602081101561067857600080fd5b50356fffffffffffffffffffffffffffffffff16611d08565b6102eb611f5d565b610445600480360360208110156106af57600080fd5b50356fffffffffffffffffffffffffffffffff16611fdc565b610445600480360360208110156106de57600080fd5b50356fffffffffffffffffffffffffffffffff166121c4565b61038c6004803603604081101561070d57600080fd5b506001600160a01b03813516906020013561226e565b61038c6004803603604081101561073957600080fd5b506001600160a01b0381351690602001356122d6565b6104456004803603606081101561076557600080fd5b5080356001600160a01b0390811691602081013590911690604001356fffffffffffffffffffffffffffffffff166122ea565b6105ae6125a8565b6103d6600480360360208110156107b657600080fd5b50356001600160a01b03166125bc565b6105ae6125ce565b6103d66125e1565b6103d6600480360360608110156107ec57600080fd5b506001600160a01b03813581169160208101359091169060400135612605565b6104456004803603606081101561082257600080fd5b5080356001600160a01b0390811691602081013590911690604001356fffffffffffffffffffffffffffffffff16612aae565b61043b600480360360e081101561086b57600080fd5b506001600160a01b03813581169160208101359091169060408101359060608101359060ff6080820135169060a08101359060c00135612d69565b6103d6600480360360408110156108bc57600080fd5b506001600160a01b0381358116916020013516612fee565b61043b600480360360208110156108ea57600080fd5b50356001600160a01b0316613019565b6109306004803603606081101561091057600080fd5b506001600160a01b03813581169160208101359091169060400135613026565b6040805192835260208301919091528051918290030190f35b6104a861354b565b6109306004803603606081101561096757600080fd5b506001600160a01b0381358116916020810135909116906040013561355a565b61038c6004803603604081101561099d57600080fd5b506001600160a01b0381358116916020013516613978565b61043b600480360360208110156109cb57600080fd5b50356001600160a01b0316613998565b60038054604080516020601f60027fffffffffffffffffffffffffffffffffffffffffffffffffffffffffffffffff610100600188161502019095169490940493840181900481028201810190925282815260609390929091830182828015610a855780601f10610a5a57610100808354040283529160200191610a85565b820191906000526020600020905b815481529060010190602001808311610a6857829003601f168201915b5050505050905090565b6000610aa3610a9c6139a2565b84846139a6565b5060015b92915050565b6000836040518060400160405280601d81526020017f506f6f6c3a204f6e6c7920486f6c646572204f722044656c6567617465000000815250816001600160a01b0316336001600160a01b03161480610b2957506001600160a01b038216600090815260076020908152604080832033845290915290205460ff165b8190610bb35760405162461bcd60e51b81526004018080602001828103825283818151815260200191508051906020019080838360005b83811015610b78578181015183820152602001610b60565b50505050905090810190601f168015610ba55780820380516001836020036101000a031916815260200191505b509250505060405180910390fd5b506000610bbe610fd9565b600954604080517f70a0823100000000000000000000000000000000000000000000000000000000815230600482015290519293506000926001600160a01b03909216916370a0823191602480820192602092909190829003018186803b158015610c2857600080fd5b505afa158015610c3c573d6000803e3d6000fd5b505050506040513d6020811015610c5257600080fd5b5051600a54604080517f70a082310000000000000000000000000000000000000000000000000000000081523060048201529051929350600092839283926001600160a01b03909116916370a0823191602480820192602092909190829003018186803b158015610cc257600080fd5b505afa158015610cd6573d6000803e3d6000fd5b505050506040513d6020811015610cec57600080fd5b50519050610d0485610cfe8b87613a92565b90613af2565b9250610d1485610cfe8b84613a92565b9150610e84905073b8c0D4Ee9380e476F409f496175D9082E6e1E58C63e5cd1e73610d47610d428787613b34565b613b76565b610d60610d52611591565b610d5b87613b76565b613be1565b610d6986613b76565b610da6427f00000000000000000000000000000000000000000000000000000000000000006fffffffffffffffffffffffffffffffff1603613b76565b604080517fffffffff0000000000000000000000000000000000000000000000000000000060e088901b1681526fffffffffffffffffffffffffffffffff958616600482015293851660248501529184166044840152909216606482015264220c523d72608482015268010d79435e50d7943560a4820152905160c4808301926020929190829003018186803b158015610e3f57600080fd5b505af4158015610e53573d6000803e3d6000fd5b505050506040513d6020811015610e6957600080fd5b505183906fffffffffffffffffffffffffffffffff16613c62565b9150610e908a89613cbc565b600954604080517fa9059cbb0000000000000000000000000000000000000000000000000000000081526001600160a01b038c81166004830152602482018690529151919092169163a9059cbb9160448083019260209291908290030181600087803b158015610eff57600080fd5b505af1158015610f13573d6000803e3d6000fd5b505050506040513d6020811015610f2957600080fd5b50506001600160a01b03808a16908b167fd9b421596e3bc3caf78305bc0d270566916f58cd61b71c9c2a3d923a3ea3ea8b7f0000000000000000000000000000000000000000000000000000000000000000610f8486613db8565b6000610f8f8e613db8565b604080516fffffffffffffffffffffffffffffffff90951685526020850193909352838301919091526000036060830152519081900360800190a350945050505b50509392505050565b60025490565b42841015611034576040805162461bcd60e51b815260206004820152601c60248201527f44656c656761626c653a205369676e6174757265206578706972656400000000604482015290519081900360640190fd5b6001600160a01b0380871660008181526006602090815260408083208054600180820190925582517f00000000000000000000000000000000000000000000000000000000000000008186015280840196909652958b166060860152608085019590955260a08085018a90528151808603909101815260c0850182528051908301207f190100000000000000000000000000000000000000000000000000000000000060e08601527f000000000000000000000000000000000000000000000000000000000000000060e286015261010280860182905282518087039091018152610122860180845281519185019190912090859052610142860180845281905260ff8a1661016287015261018286018990526101a2860188905291519095919491926101c28084019391927fffffffffffffffffffffffffffffffffffffffffffffffffffffffffffffffe081019281900390910190855afa15801561119f573d6000803e3d6000fd5b50506040517fffffffffffffffffffffffffffffffffffffffffffffffffffffffffffffffe001519150506001600160a01b038116158015906111f35750886001600160a01b0316816001600160a01b0316145b611244576040805162461bcd60e51b815260206004820152601c60248201527f44656c656761626c653a20496e76616c6964207369676e617475726500000000604482015290519081900360640190fd5b61124e8989613e2f565b505050505050505050565b7f000000000000000000000000000000000000000000000000000000000000000081565b600061128a848484613f34565b6112fa846112966139a2565b6112f585604051806060016040528060288152602001614680602891396001600160a01b038a166000908152600160205260408120906112d46139a2565b6001600160a01b03168152602081019190915260400160002054919061408f565b6139a6565b5060019392505050565b600a546001600160a01b031681565b7f000000000000000000000000000000000000000000000000000000000000000081565b60055460ff1690565b7f000000000000000000000000000000000000000000000000000000000000000081565b6000610aa36113716139a2565b846112f585600160006113826139a2565b6001600160a01b03908116825260208083019390935260409182016000908120918c168152925290205490613c62565b7f000000000000000000000000000000000000000000000000000000000000000081565b60007f00000000000000000000000000000000000000000000000000000000000000006fffffffffffffffffffffffffffffffff16421061145e576040805162461bcd60e51b815260206004820152600e60248201527f506f6f6c3a20546f6f206c617465000000000000000000000000000000000000604482015290519081900360640190fd5b73b8c0D4Ee9380e476F409f496175D9082E6e1E58C63420df2f4611480611c5a565b611488611591565b856114c6427f00000000000000000000000000000000000000000000000000000000000000006fffffffffffffffffffffffffffffffff1603613b76565b604080517fffffffff0000000000000000000000000000000000000000000000000000000060e088901b1681526fffffffffffffffffffffffffffffffff958616600482015293851660248501529184166044840152909216606482015264220c523d72608482015268010d79435e50d7943560a4820152905160c4808301926020929190829003018186803b15801561155f57600080fd5b505af4158015611573573d6000803e3d6000fd5b505050506040513d602081101561158957600080fd5b505192915050565b6000611637610d426115a1610fd9565b600a54604080517f70a0823100000000000000000000000000000000000000000000000000000000815230600482015290516001600160a01b03909216916370a0823191602480820192602092909190829003018186803b15801561160557600080fd5b505afa158015611619573d6000803e3d6000fd5b505050506040513d602081101561162f57600080fd5b505190613c62565b905090565b6000836040518060400160405280601d81526020017f506f6f6c3a204f6e6c7920486f6c646572204f722044656c6567617465000000815250816001600160a01b0316336001600160a01b031614806116b857506001600160a01b038216600090815260076020908152604080832033845290915290205460ff165b81906117055760405162461bcd60e51b8152602060048201818152835160248401528351909283926044909101919085019080838360008315610b78578181015183820152602001610b60565b506000611711856121c4565b600a54604080517f23b872dd0000000000000000000000000000000000000000000000000000000081526001600160a01b038b811660048301523060248301526fffffffffffffffffffffffffffffffff8a16604483015291519394509116916323b872dd916064808201926020929091908290030181600087803b15801561179957600080fd5b505af11580156117ad573d6000803e3d6000fd5b505050506040513d60208110156117c357600080fd5b5050600954604080517fa9059cbb0000000000000000000000000000000000000000000000000000000081526001600160a01b0389811660048301526fffffffffffffffffffffffffffffffff851660248301529151919092169163a9059cbb9160448083019260209291908290030181600087803b15801561184557600080fd5b505af1158015611859573d6000803e3d6000fd5b505050506040513d602081101561186f57600080fd5b50506001600160a01b038087169088167f3f207773c457c66e004ab34e2ce7ae1fcafc7b4c3286f63997c87428014219157f00000000000000000000000000000000000000000000000000000000000000006118dc6fffffffffffffffffffffffffffffffff8616613db8565b6118f78a6fffffffffffffffffffffffffffffffff16613db8565b604080516fffffffffffffffffffffffffffffffff9094168452602084019290925260000382820152519081900360600190a39695505050505050565b6103b66903e800000000000000005b0481565b6001600160a01b031660009081526020819052604090205490565b6000836040518060400160405280601d81526020017f506f6f6c3a204f6e6c7920486f6c646572204f722044656c6567617465000000815250816001600160a01b0316336001600160a01b031614806119de57506001600160a01b038216600090815260076020908152604080832033845290915290205460ff165b8190611a2b5760405162461bcd60e51b8152602060048201818152835160248401528351909283926044909101919085019080838360008315610b78578181015183820152602001610b60565b506000611a3785611fdc565b600954604080517f23b872dd0000000000000000000000000000000000000000000000000000000081526001600160a01b038b811660048301523060248301526fffffffffffffffffffffffffffffffff8516604483015291519394509116916323b872dd916064808201926020929091908290030181600087803b158015611abf57600080fd5b505af1158015611ad3573d6000803e3d6000fd5b505050506040513d6020811015611ae957600080fd5b5050600a54604080517fa9059cbb0000000000000000000000000000000000000000000000000000000081526001600160a01b0389811660048301526fffffffffffffffffffffffffffffffff891660248301529151919092169163a9059cbb9160448083019260209291908290030181600087803b158015611b6b57600080fd5b505af1158015611b7f573d6000803e3d6000fd5b505050506040513d6020811015611b9557600080fd5b50506001600160a01b038087169088167f3f207773c457c66e004ab34e2ce7ae1fcafc7b4c3286f63997c87428014219157f0000000000000000000000000000000000000000000000000000000000000000611c026fffffffffffffffffffffffffffffffff8616613db8565b600003611c208a6fffffffffffffffffffffffffffffffff16613db8565b604080516fffffffffffffffffffffffffffffffff9094168452602084019290925282820152519081900360600190a39695505050505050565b600954604080517f70a082310000000000000000000000000000000000000000000000000000000081523060048201529051600092611637926001600160a01b03909116916370a0823191602480820192602092909190829003018186803b158015611cc557600080fd5b505afa158015611cd9573d6000803e3d6000fd5b505050506040513d6020811015611cef57600080fd5b5051613b76565b60086020526000908152604090205481565b60007f00000000000000000000000000000000000000000000000000000000000000006fffffffffffffffffffffffffffffffff164210611d90576040805162461bcd60e51b815260206004820152600e60248201527f506f6f6c3a20546f6f206c617465000000000000000000000000000000000000604482015290519081900360640190fd5b6000611d9a611c5a565b90506000611da6611591565b9050600073b8c0D4Ee9380e476F409f496175D9082E6e1E58C631d385c1f848488611e04427f00000000000000000000000000000000000000000000000000000000000000006fffffffffffffffffffffffffffffffff1603613b76565b604080517fffffffff0000000000000000000000000000000000000000000000000000000060e088901b1681526fffffffffffffffffffffffffffffffff958616600482015293851660248501529184166044840152909216606482015264220c523d72608482015267f33333333333333360a4820152905160c4808301926020929190829003018186803b158015611e9c57600080fd5b505af4158015611eb0573d6000803e3d6000fd5b505050506040513d6020811015611ec657600080fd5b50519050611ed483866140e9565b6fffffffffffffffffffffffffffffffff16611ef08383613be1565b6fffffffffffffffffffffffffffffffff161015611f55576040805162461bcd60e51b815260206004820152601c60248201527f506f6f6c3a20667944616920726573657276657320746f6f206c6f7700000000604482015290519081900360640190fd5b949350505050565b60048054604080516020601f60027fffffffffffffffffffffffffffffffffffffffffffffffffffffffffffffffff610100600188161502019095169490940493840181900481028201810190925282815260609390929091830182828015610a855780601f10610a5a57610100808354040283529160200191610a85565b60007f00000000000000000000000000000000000000000000000000000000000000006fffffffffffffffffffffffffffffffff164210612064576040805162461bcd60e51b815260206004820152600e60248201527f506f6f6c3a20546f6f206c617465000000000000000000000000000000000000604482015290519081900360640190fd5b600061206e611c5a565b9050600061207a611591565b9050600073b8c0D4Ee9380e476F409f496175D9082E6e1E58C63d536aadd8484886120d8427f00000000000000000000000000000000000000000000000000000000000000006fffffffffffffffffffffffffffffffff1603613b76565b604080517fffffffff0000000000000000000000000000000000000000000000000000000060e088901b1681526fffffffffffffffffffffffffffffffff958616600482015293851660248501529184166044840152909216606482015264220c523d72608482015267f33333333333333360a4820152905160c4808301926020929190829003018186803b15801561217057600080fd5b505af4158015612184573d6000803e3d6000fd5b505050506040513d602081101561219a57600080fd5b505190506121a883826140e9565b6fffffffffffffffffffffffffffffffff16611ef08387613be1565b60007f00000000000000000000000000000000000000000000000000000000000000006fffffffffffffffffffffffffffffffff16421061224c576040805162461bcd60e51b815260206004820152600e60248201527f506f6f6c3a20546f6f206c617465000000000000000000000000000000000000604482015290519081900360640190fd5b73b8c0D4Ee9380e476F409f496175D9082E6e1E58C63e5cd1e73611480611c5a565b6000610aa361227b6139a2565b846112f58560405180606001604052806025815260200161471260259139600160006122a56139a2565b6001600160a01b03908116825260208083019390935260409182016000908120918d1681529252902054919061408f565b6000610aa36122e36139a2565b8484613f34565b6000836040518060400160405280601d81526020017f506f6f6c3a204f6e6c7920486f6c646572204f722044656c6567617465000000815250816001600160a01b0316336001600160a01b0316148061236657506001600160a01b038216600090815260076020908152604080832033845290915290205460ff165b81906123b35760405162461bcd60e51b8152602060048201818152835160248401528351909283926044909101919085019080838360008315610b78578181015183820152602001610b60565b5060006123bf85611d08565b600954604080517f23b872dd0000000000000000000000000000000000000000000000000000000081526001600160a01b038b811660048301523060248301526fffffffffffffffffffffffffffffffff8a16604483015291519394509116916323b872dd916064808201926020929091908290030181600087803b15801561244757600080fd5b505af115801561245b573d6000803e3d6000fd5b505050506040513d602081101561247157600080fd5b5050600a54604080517fa9059cbb0000000000000000000000000000000000000000000000000000000081526001600160a01b0389811660048301526fffffffffffffffffffffffffffffffff851660248301529151919092169163a9059cbb9160448083019260209291908290030181600087803b1580156124f357600080fd5b505af1158015612507573d6000803e3d6000fd5b505050506040513d602081101561251d57600080fd5b50506001600160a01b038087169088167f3f207773c457c66e004ab34e2ce7ae1fcafc7b4c3286f63997c87428014219157f000000000000000000000000000000000000000000000000000000000000000061258a6fffffffffffffffffffffffffffffffff8a16613db8565b600003611c20866fffffffffffffffffffffffffffffffff16613db8565b630784ce0068010000000000000000611943565b60066020526000908152604090205481565b6103e86903b60000000000000000611943565b7f000000000000000000000000000000000000000000000000000000000000000081565b6000836040518060400160405280601d81526020017f506f6f6c3a204f6e6c7920486f6c646572204f722044656c6567617465000000815250816001600160a01b0316336001600160a01b0316148061268157506001600160a01b038216600090815260076020908152604080832033845290915290205460ff165b81906126ce5760405162461bcd60e51b8152602060048201818152835160248401528351909283926044909101919085019080838360008315610b78578181015183820152602001610b60565b5060006126d9610fd9565b9050806126f1576126e985614158565b935050610fd0565b600954604080517f70a0823100000000000000000000000000000000000000000000000000000000815230600482015290516000926001600160a01b0316916370a08231916024808301926020929190829003018186803b15801561275557600080fd5b505afa158015612769573d6000803e3d6000fd5b505050506040513d602081101561277f57600080fd5b5051600a54604080517f70a0823100000000000000000000000000000000000000000000000000000000815230600482015290519293506000926001600160a01b03909216916370a0823191602480820192602092909190829003018186803b1580156127eb57600080fd5b505afa1580156127ff573d6000803e3d6000fd5b505050506040513d602081101561281557600080fd5b50519050600061282983610cfe868b613a92565b9050600061283b85610cfe8585613a92565b90506fffffffffffffffffffffffffffffffff612858858b613c62565b111561286357600080fd5b6fffffffffffffffffffffffffffffffff6128886128818584613c62565b8790613c62565b111561289357600080fd5b600954604080517f23b872dd0000000000000000000000000000000000000000000000000000000081526001600160a01b038e81166004830152306024830152604482018d9052915191909216916323b872dd9160648083019260209291908290030181600087803b15801561290857600080fd5b505af115801561291c573d6000803e3d6000fd5b505050506040513d602081101561293257600080fd5b505161293d57600080fd5b600a54604080517f23b872dd0000000000000000000000000000000000000000000000000000000081526001600160a01b038e8116600483015230602483015260448201859052915191909216916323b872dd9160648083019260209291908290030181600087803b1580156129b257600080fd5b505af11580156129c6573d6000803e3d6000fd5b505050506040513d60208110156129dc57600080fd5b50516129e757600080fd5b6129f18a8361437b565b896001600160a01b03168b6001600160a01b03167fd9b421596e3bc3caf78305bc0d270566916f58cd61b71c9c2a3d923a3ea3ea8b7f0000000000000000000000000000000000000000000000000000000000000000612a508d613db8565b600003612a5c86613db8565b600003612a6888613db8565b604080516fffffffffffffffffffffffffffffffff90951685526020850193909352838301919091526060830152519081900360800190a3509998505050505050505050565b6000836040518060400160405280601d81526020017f506f6f6c3a204f6e6c7920486f6c646572204f722044656c6567617465000000815250816001600160a01b0316336001600160a01b03161480612b2a57506001600160a01b038216600090815260076020908152604080832033845290915290205460ff165b8190612b775760405162461bcd60e51b8152602060048201818152835160248401528351909283926044909101919085019080838360008315610b78578181015183820152602001610b60565b506000612b83856113d6565b600a54604080517f23b872dd0000000000000000000000000000000000000000000000000000000081526001600160a01b038b811660048301523060248301526fffffffffffffffffffffffffffffffff8516604483015291519394509116916323b872dd916064808201926020929091908290030181600087803b158015612c0b57600080fd5b505af1158015612c1f573d6000803e3d6000fd5b505050506040513d6020811015612c3557600080fd5b5050600954604080517fa9059cbb0000000000000000000000000000000000000000000000000000000081526001600160a01b0389811660048301526fffffffffffffffffffffffffffffffff891660248301529151919092169163a9059cbb9160448083019260209291908290030181600087803b158015612cb757600080fd5b505af1158015612ccb573d6000803e3d6000fd5b505050506040513d6020811015612ce157600080fd5b50506001600160a01b038087169088167f3f207773c457c66e004ab34e2ce7ae1fcafc7b4c3286f63997c87428014219157f0000000000000000000000000000000000000000000000000000000000000000612d4e6fffffffffffffffffffffffffffffffff8a16613db8565b6118f7866fffffffffffffffffffffffffffffffff16613db8565b42841015612dbe576040805162461bcd60e51b815260206004820152601d60248201527f45524332305065726d69743a206578706972656420646561646c696e65000000604482015290519081900360640190fd5b6001600160a01b0380881660008181526008602090815260408083208054600180820190925582517f00000000000000000000000000000000000000000000000000000000000000008186015280840196909652958c166060860152608085018b905260a085019590955260c08085018a90528151808603909101815260e0850182528051908301207f19010000000000000000000000000000000000000000000000000000000000006101008601527f000000000000000000000000000000000000000000000000000000000000000061010286015261012280860182905282518087039091018152610142860180845281519185019190912090859052610162860180845281905260ff8a166101828701526101a286018990526101c2860188905291519095919491926101e28084019391927fffffffffffffffffffffffffffffffffffffffffffffffffffffffffffffffe081019281900390910190855afa158015612f32573d6000803e3d6000fd5b50506040517fffffffffffffffffffffffffffffffffffffffffffffffffffffffffffffffe001519150506001600160a01b03811615801590612f865750896001600160a01b0316816001600160a01b0316145b612fd7576040805162461bcd60e51b815260206004820152601e60248201527f45524332305065726d69743a20696e76616c6964207369676e61747572650000604482015290519081900360640190fd5b612fe28a8a8a6139a6565b50505050505050505050565b6001600160a01b03918216600090815260016020908152604080832093909416825291909152205490565b6130233382613e2f565b50565b600080846040518060400160405280601d81526020017f506f6f6c3a204f6e6c7920486f6c646572204f722044656c6567617465000000815250816001600160a01b0316336001600160a01b031614806130a357506001600160a01b038216600090815260076020908152604080832033845290915290205460ff165b81906130f05760405162461bcd60e51b8152602060048201818152835160248401528351909283926044909101919085019080838360008315610b78578181015183820152602001610b60565b5060006130fb610fd9565b905060008111613152576040805162461bcd60e51b815260206004820152601460248201527f506f6f6c3a20557365206d696e74206669727374000000000000000000000000604482015290519081900360640190fd5b600954604080517f70a0823100000000000000000000000000000000000000000000000000000000815230600482015290516000926001600160a01b0316916370a08231916024808301926020929190829003018186803b1580156131b657600080fd5b505afa1580156131ca573d6000803e3d6000fd5b505050506040513d60208110156131e057600080fd5b5051600a54604080517f70a0823100000000000000000000000000000000000000000000000000000000815230600482015290519293506000926001600160a01b03909216916370a0823191602480820192602092909190829003018186803b15801561324c57600080fd5b505afa158015613260573d6000803e3d6000fd5b505050506040513d602081101561327657600080fd5b50519050600061328d6132888a613b76565b611fdc565b6fffffffffffffffffffffffffffffffff169050888210156132f6576040805162461bcd60e51b815260206004820152601660248201527f506f6f6c3a204e6f7420656e6f75676820667944616900000000000000000000604482015290519081900360640190fd5b600061330f613305848c613b34565b610cfe878d613a92565b905061332985610cfe836133238887613c62565b90613a92565b91506fffffffffffffffffffffffffffffffff6133468584613c62565b1115613399576040805162461bcd60e51b815260206004820152601260248201527f506f6f6c3a20546f6f206d756368204461690000000000000000000000000000604482015290519081900360640190fd5b600954604080517f23b872dd0000000000000000000000000000000000000000000000000000000081526001600160a01b038f8116600483015230602483015260448201869052915191909216916323b872dd9160648083019260209291908290030181600087803b15801561340e57600080fd5b505af1158015613422573d6000803e3d6000fd5b505050506040513d602081101561343857600080fd5b505161348b576040805162461bcd60e51b815260206004820152601960248201527f506f6f6c3a20446169207472616e73666572206661696c656400000000000000604482015290519081900360640190fd5b6134958b8261437b565b8a6001600160a01b03168c6001600160a01b03167fd9b421596e3bc3caf78305bc0d270566916f58cd61b71c9c2a3d923a3ea3ea8b7f00000000000000000000000000000000000000000000000000000000000000006134f486613db8565b600003600061350287613db8565b604080516fffffffffffffffffffffffffffffffff90951685526020850193909352838301919091526060830152519081900360800190a3909b909a5098505050505050505050565b6009546001600160a01b031681565b600080846040518060400160405280601d81526020017f506f6f6c3a204f6e6c7920486f6c646572204f722044656c6567617465000000815250816001600160a01b0316336001600160a01b031614806135d757506001600160a01b038216600090815260076020908152604080832033845290915290205460ff165b81906136245760405162461bcd60e51b8152602060048201818152835160248401528351909283926044909101919085019080838360008315610b78578181015183820152602001610b60565b50600061362f610fd9565b600954604080517f70a0823100000000000000000000000000000000000000000000000000000000815230600482015290519293506000926001600160a01b03909216916370a0823191602480820192602092909190829003018186803b15801561369957600080fd5b505afa1580156136ad573d6000803e3d6000fd5b505050506040513d60208110156136c357600080fd5b5051600a54604080517f70a082310000000000000000000000000000000000000000000000000000000081523060048201529051929350600092839283926001600160a01b03909116916370a0823191602480820192602092909190829003018186803b15801561373357600080fd5b505afa158015613747573d6000803e3d6000fd5b505050506040513d602081101561375d57600080fd5b5051905061376f85610cfe8c87613a92565b925061377f85610cfe8c84613a92565b91505061378c8b8a613cbc565b600954604080517fa9059cbb0000000000000000000000000000000000000000000000000000000081526001600160a01b038d81166004830152602482018690529151919092169163a9059cbb9160448083019260209291908290030181600087803b1580156137fb57600080fd5b505af115801561380f573d6000803e3d6000fd5b505050506040513d602081101561382557600080fd5b5050600a54604080517fa9059cbb0000000000000000000000000000000000000000000000000000000081526001600160a01b038d81166004830152602482018590529151919092169163a9059cbb9160448083019260209291908290030181600087803b15801561389657600080fd5b505af11580156138aa573d6000803e3d6000fd5b505050506040513d60208110156138c057600080fd5b50506001600160a01b03808b16908c167fd9b421596e3bc3caf78305bc0d270566916f58cd61b71c9c2a3d923a3ea3ea8b7f000000000000000000000000000000000000000000000000000000000000000061391b86613db8565b61392486613db8565b61392d8f613db8565b604080516fffffffffffffffffffffffffffffffff90951685526020850193909352838301919091526000036060830152519081900360800190a3909a909950975050505050505050565b600760209081526000928352604080842090915290825290205460ff1681565b613023338261446b565b3390565b6001600160a01b0383166139eb5760405162461bcd60e51b81526004018080602001828103825260248152602001806146ee6024913960400191505060405180910390fd5b6001600160a01b038216613a305760405162461bcd60e51b81526004018080602001828103825260228152602001806146176022913960400191505060405180910390fd5b6001600160a01b03808416600081815260016020908152604080832094871680845294825291829020859055815185815291517f8c5be1e5ebec7d5bd14f71427d1e84f3dd0314c0f7b2291e5b200ac8c7c3b9259281900390910190a3505050565b600082613aa157506000610aa7565b82820282848281613aae57fe5b0414613aeb5760405162461bcd60e51b815260040180806020018281038252602181526020018061465f6021913960400191505060405180910390fd5b9392505050565b6000613aeb83836040518060400160405280601a81526020017f536166654d6174683a206469766973696f6e206279207a65726f000000000000815250614567565b6000613aeb83836040518060400160405280601e81526020017f536166654d6174683a207375627472616374696f6e206f766572666c6f77000081525061408f565b60006fffffffffffffffffffffffffffffffff821115613bdd576040805162461bcd60e51b815260206004820152601360248201527f506f6f6c3a2043617374206f766572666c6f7700000000000000000000000000604482015290519081900360640190fd5b5090565b6000826fffffffffffffffffffffffffffffffff16826fffffffffffffffffffffffffffffffff161115613c5c576040805162461bcd60e51b815260206004820152601c60248201527f506f6f6c3a20667944616920726573657276657320746f6f206c6f7700000000604482015290519081900360640190fd5b50900390565b600082820183811015613aeb576040805162461bcd60e51b815260206004820152601b60248201527f536166654d6174683a206164646974696f6e206f766572666c6f770000000000604482015290519081900360640190fd5b6001600160a01b038216613d015760405162461bcd60e51b81526004018080602001828103825260218152602001806146a86021913960400191505060405180910390fd5b613d0d826000836145cc565b613d4a816040518060600160405280602281526020016145f5602291396001600160a01b038516600090815260208190526040902054919061408f565b6001600160a01b038316600090815260208190526040902055600254613d709082613b34565b6002556040805182815290516000916001600160a01b038516917fddf252ad1be2c89b69c2b068fc378daa952ba7f163c4a11628f55a4df523b3ef9181900360200190a35050565b60007f7fffffffffffffffffffffffffffffffffffffffffffffffffffffffffffffff821115613bdd576040805162461bcd60e51b815260206004820152601360248201527f506f6f6c3a2043617374206f766572666c6f7700000000000000000000000000604482015290519081900360640190fd5b6001600160a01b0380831660009081526007602090815260408083209385168352929052205460ff1615613eaa576040805162461bcd60e51b815260206004820152601c60248201527f44656c656761626c653a20416c72656164792064656c65676174656400000000604482015290519081900360640190fd5b6001600160a01b0380831660008181526007602090815260408083209486168084529482529182902080547fffffffffffffffffffffffffffffffffffffffffffffffffffffffffffffff00166001908117909155825190815291517f045b0fef01772d2fbba53dbd38c9777806eac0865b00af43abcfbcaf50da92069281900390910190a35050565b6001600160a01b038316613f795760405162461bcd60e51b81526004018080602001828103825260258152602001806146c96025913960400191505060405180910390fd5b6001600160a01b038216613fbe5760405162461bcd60e51b81526004018080602001828103825260238152602001806145d26023913960400191505060405180910390fd5b613fc98383836145cc565b61400681604051806060016040528060268152602001614639602691396001600160a01b038616600090815260208190526040902054919061408f565b6001600160a01b0380851660009081526020819052604080822093909355908416815220546140359082613c62565b6001600160a01b038084166000818152602081815260409182902094909455805185815290519193928716927fddf252ad1be2c89b69c2b068fc378daa952ba7f163c4a11628f55a4df523b3ef92918290030190a3505050565b600081848411156140e15760405162461bcd60e51b8152602060048201818152835160248401528351909283926044909101919085019080838360008315610b78578181015183820152602001610b60565b505050900390565b60008282016fffffffffffffffffffffffffffffffff8085169082161015613aeb576040805162461bcd60e51b815260206004820152601b60248201527f506f6f6c3a2044616920726573657276657320746f6f20686967680000000000604482015290519081900360640190fd5b60007f00000000000000000000000000000000000000000000000000000000000000006fffffffffffffffffffffffffffffffff1642106141e0576040805162461bcd60e51b815260206004820152600e60248201527f506f6f6c3a20546f6f206c617465000000000000000000000000000000000000604482015290519081900360640190fd5b6141e8610fd9565b1561423a576040805162461bcd60e51b815260206004820152601960248201527f506f6f6c3a20416c726561647920696e697469616c697a656400000000000000604482015290519081900360640190fd5b600954604080517f23b872dd0000000000000000000000000000000000000000000000000000000081523360048201523060248201526044810185905290516001600160a01b03909216916323b872dd916064808201926020929091908290030181600087803b1580156142ad57600080fd5b505af11580156142c1573d6000803e3d6000fd5b505050506040513d60208110156142d757600080fd5b506142e49050338361437b565b33807fd9b421596e3bc3caf78305bc0d270566916f58cd61b71c9c2a3d923a3ea3ea8b7f000000000000000000000000000000000000000000000000000000000000000061433186613db8565b600003600061433f88613db8565b604080516fffffffffffffffffffffffffffffffff90951685526020850193909352838301919091526060830152519081900360800190a35090565b6001600160a01b0382166143d6576040805162461bcd60e51b815260206004820152601f60248201527f45524332303a206d696e7420746f20746865207a65726f206164647265737300604482015290519081900360640190fd5b6143e2600083836145cc565b6002546143ef9082613c62565b6002556001600160a01b0382166000908152602081905260409020546144159082613c62565b6001600160a01b0383166000818152602081815260408083209490945583518581529351929391927fddf252ad1be2c89b69c2b068fc378daa952ba7f163c4a11628f55a4df523b3ef9281900390910190a35050565b6001600160a01b0380831660009081526007602090815260408083209385168352929052205460ff166144e5576040805162461bcd60e51b815260206004820152601e60248201527f44656c656761626c653a20416c726561647920756e64656c6567617465640000604482015290519081900360640190fd5b6001600160a01b03808316600081815260076020908152604080832094861680845294825280832080547fffffffffffffffffffffffffffffffffffffffffffffffffffffffffffffff001690558051928352517f045b0fef01772d2fbba53dbd38c9777806eac0865b00af43abcfbcaf50da92069281900390910190a35050565b600081836145b65760405162461bcd60e51b8152602060048201818152835160248401528351909283926044909101919085019080838360008315610b78578181015183820152602001610b60565b5060008385816145c257fe5b0495945050505050565b50505056fe45524332303a207472616e7366657220746f20746865207a65726f206164647265737345524332303a206275726e20616d6f756e7420657863656564732062616c616e636545524332303a20617070726f766520746f20746865207a65726f206164647265737345524332303a207472616e7366657220616d6f756e7420657863656564732062616c616e6365536166654d6174683a206d756c7469706c69636174696f6e206f766572666c6f7745524332303a207472616e7366657220616d6f756e74206578636565647320616c6c6f77616e636545524332303a206275726e2066726f6d20746865207a65726f206164647265737345524332303a207472616e736665722066726f6d20746865207a65726f206164647265737345524332303a20617070726f76652066726f6d20746865207a65726f206164647265737345524332303a2064656372656173656420616c6c6f77616e63652062656c6f77207a65726fa26469706673582212209d016f1bae5b7efcfa822141e7c190b3ae17c5d2f32f20ceb07277720edbbdcc64736f6c634300070500338b73c3c69bb8fe3d512ecc4cf759cc79239f7b179b0ffacaa9a75d522b39400f",
  "deployedBytecode": "0x608060405234801561001057600080fd5b50600436106102de5760003560e01c806385561a3411610186578063c0bd65d7116100e3578063e71bdf4111610097578063f6b911bc11610071578063f6b911bc14610951578063f6bcbd3114610987578063fa352c00146109b5576102de565b8063e71bdf41146108d4578063eab5cd2c146108fa578063f4b9fa7514610949576102de565b8063cc5783d3116100c8578063cc5783d31461080c578063d505accf14610855578063dd62ed3e146108a6576102de565b8063c0bd65d7146107ce578063c6c3bbe6146107d6576102de565b8063a9059cbb1161013a578063b4f40c611161011f578063b4f40c6114610798578063b5d832fe146107a0578063bdd8a366146107c6576102de565b8063a9059cbb14610723578063b26be9221461074f576102de565b806398ba4aec1161016b57806398ba4aec146106995780639ac95875146106c8578063a457c2d7146106f7576102de565b806385561a341461066257806395d89b4114610691576102de565b80633644e5151161023f57806360561e05116101f35780637543e39c116101cd5780637543e39c146105eb57806377d739f3146106345780637ecebe001461063c576102de565b806360561e051461055d5780636970a924146105a657806370a08231146105c5576102de565b8063459e414f11610224578063459e414f1461051e5780634e20e952146105265780635f4d07dc14610555576102de565b80633644e515146104ea57806339509351146104f2576102de565b8063204f83f911610296578063284f44441161027b578063284f4444146104a057806330adf81f146104c4578063313ce567146104cc576102de565b8063204f83f91461043d57806323b872dd1461046a576102de565b806312c63d85116102c757806312c63d85146103a057806318160ddd146103e85780631a28ff05146103f0576102de565b806306fdde03146102e3578063095ea7b314610360575b600080fd5b6102eb6109db565b6040805160208082528351818301528351919283929083019185019080838360005b8381101561032557818101518382015260200161030d565b50505050905090810190601f1680156103525780820380516001836020036101000a031916815260200191505b509250505060405180910390f35b61038c6004803603604081101561037657600080fd5b506001600160a01b038135169060200135610a8f565b604080519115158252519081900360200190f35b6103d6600480360360608110156103b657600080fd5b506001600160a01b03813581169160208101359091169060400135610aad565b60408051918252519081900360200190f35b6103d6610fd9565b61043b600480360360c081101561040657600080fd5b506001600160a01b03813581169160208101359091169060408101359060ff6060820135169060808101359060a00135610fdf565b005b610445611259565b604080516fffffffffffffffffffffffffffffffff9092168252519081900360200190f35b61038c6004803603606081101561048057600080fd5b506001600160a01b0381358116916020810135909116906040013561127d565b6104a8611304565b604080516001600160a01b039092168252519081900360200190f35b6103d6611313565b6104d4611337565b6040805160ff9092168252519081900360200190f35b6103d6611340565b61038c6004803603604081101561050857600080fd5b506001600160a01b038135169060200135611364565b6103d66113b2565b6104456004803603602081101561053c57600080fd5b50356fffffffffffffffffffffffffffffffff166113d6565b610445611591565b6104456004803603606081101561057357600080fd5b5080356001600160a01b0390811691602081013590911690604001356fffffffffffffffffffffffffffffffff1661163c565b6105ae611934565b60408051600f9290920b8252519081900360200190f35b6103d6600480360360208110156105db57600080fd5b50356001600160a01b0316611947565b6104456004803603606081101561060157600080fd5b5080356001600160a01b0390811691602081013590911690604001356fffffffffffffffffffffffffffffffff16611962565b610445611c5a565b6103d66004803603602081101561065257600080fd5b50356001600160a01b0316611cf6565b6104456004803603602081101561067857600080fd5b50356fffffffffffffffffffffffffffffffff16611d08565b6102eb611f5d565b610445600480360360208110156106af57600080fd5b50356fffffffffffffffffffffffffffffffff16611fdc565b610445600480360360208110156106de57600080fd5b50356fffffffffffffffffffffffffffffffff166121c4565b61038c6004803603604081101561070d57600080fd5b506001600160a01b03813516906020013561226e565b61038c6004803603604081101561073957600080fd5b506001600160a01b0381351690602001356122d6565b6104456004803603606081101561076557600080fd5b5080356001600160a01b0390811691602081013590911690604001356fffffffffffffffffffffffffffffffff166122ea565b6105ae6125a8565b6103d6600480360360208110156107b657600080fd5b50356001600160a01b03166125bc565b6105ae6125ce565b6103d66125e1565b6103d6600480360360608110156107ec57600080fd5b506001600160a01b03813581169160208101359091169060400135612605565b6104456004803603606081101561082257600080fd5b5080356001600160a01b0390811691602081013590911690604001356fffffffffffffffffffffffffffffffff16612aae565b61043b600480360360e081101561086b57600080fd5b506001600160a01b03813581169160208101359091169060408101359060608101359060ff6080820135169060a08101359060c00135612d69565b6103d6600480360360408110156108bc57600080fd5b506001600160a01b0381358116916020013516612fee565b61043b600480360360208110156108ea57600080fd5b50356001600160a01b0316613019565b6109306004803603606081101561091057600080fd5b506001600160a01b03813581169160208101359091169060400135613026565b6040805192835260208301919091528051918290030190f35b6104a861354b565b6109306004803603606081101561096757600080fd5b506001600160a01b0381358116916020810135909116906040013561355a565b61038c6004803603604081101561099d57600080fd5b506001600160a01b0381358116916020013516613978565b61043b600480360360208110156109cb57600080fd5b50356001600160a01b0316613998565b60038054604080516020601f60027fffffffffffffffffffffffffffffffffffffffffffffffffffffffffffffffff610100600188161502019095169490940493840181900481028201810190925282815260609390929091830182828015610a855780601f10610a5a57610100808354040283529160200191610a85565b820191906000526020600020905b815481529060010190602001808311610a6857829003601f168201915b5050505050905090565b6000610aa3610a9c6139a2565b84846139a6565b5060015b92915050565b6000836040518060400160405280601d81526020017f506f6f6c3a204f6e6c7920486f6c646572204f722044656c6567617465000000815250816001600160a01b0316336001600160a01b03161480610b2957506001600160a01b038216600090815260076020908152604080832033845290915290205460ff165b8190610bb35760405162461bcd60e51b81526004018080602001828103825283818151815260200191508051906020019080838360005b83811015610b78578181015183820152602001610b60565b50505050905090810190601f168015610ba55780820380516001836020036101000a031916815260200191505b509250505060405180910390fd5b506000610bbe610fd9565b600954604080517f70a0823100000000000000000000000000000000000000000000000000000000815230600482015290519293506000926001600160a01b03909216916370a0823191602480820192602092909190829003018186803b158015610c2857600080fd5b505afa158015610c3c573d6000803e3d6000fd5b505050506040513d6020811015610c5257600080fd5b5051600a54604080517f70a082310000000000000000000000000000000000000000000000000000000081523060048201529051929350600092839283926001600160a01b03909116916370a0823191602480820192602092909190829003018186803b158015610cc257600080fd5b505afa158015610cd6573d6000803e3d6000fd5b505050506040513d6020811015610cec57600080fd5b50519050610d0485610cfe8b87613a92565b90613af2565b9250610d1485610cfe8b84613a92565b9150610e84905073__$2849603f80b5b09a5f0b9fd2ec8a219afa$__63e5cd1e73610d47610d428787613b34565b613b76565b610d60610d52611591565b610d5b87613b76565b613be1565b610d6986613b76565b610da6427f00000000000000000000000000000000000000000000000000000000000000006fffffffffffffffffffffffffffffffff1603613b76565b604080517fffffffff0000000000000000000000000000000000000000000000000000000060e088901b1681526fffffffffffffffffffffffffffffffff958616600482015293851660248501529184166044840152909216606482015264220c523d72608482015268010d79435e50d7943560a4820152905160c4808301926020929190829003018186803b158015610e3f57600080fd5b505af4158015610e53573d6000803e3d6000fd5b505050506040513d6020811015610e6957600080fd5b505183906fffffffffffffffffffffffffffffffff16613c62565b9150610e908a89613cbc565b600954604080517fa9059cbb0000000000000000000000000000000000000000000000000000000081526001600160a01b038c81166004830152602482018690529151919092169163a9059cbb9160448083019260209291908290030181600087803b158015610eff57600080fd5b505af1158015610f13573d6000803e3d6000fd5b505050506040513d6020811015610f2957600080fd5b50506001600160a01b03808a16908b167fd9b421596e3bc3caf78305bc0d270566916f58cd61b71c9c2a3d923a3ea3ea8b7f0000000000000000000000000000000000000000000000000000000000000000610f8486613db8565b6000610f8f8e613db8565b604080516fffffffffffffffffffffffffffffffff90951685526020850193909352838301919091526000036060830152519081900360800190a350945050505b50509392505050565b60025490565b42841015611034576040805162461bcd60e51b815260206004820152601c60248201527f44656c656761626c653a205369676e6174757265206578706972656400000000604482015290519081900360640190fd5b6001600160a01b0380871660008181526006602090815260408083208054600180820190925582517f00000000000000000000000000000000000000000000000000000000000000008186015280840196909652958b166060860152608085019590955260a08085018a90528151808603909101815260c0850182528051908301207f190100000000000000000000000000000000000000000000000000000000000060e08601527f000000000000000000000000000000000000000000000000000000000000000060e286015261010280860182905282518087039091018152610122860180845281519185019190912090859052610142860180845281905260ff8a1661016287015261018286018990526101a2860188905291519095919491926101c28084019391927fffffffffffffffffffffffffffffffffffffffffffffffffffffffffffffffe081019281900390910190855afa15801561119f573d6000803e3d6000fd5b50506040517fffffffffffffffffffffffffffffffffffffffffffffffffffffffffffffffe001519150506001600160a01b038116158015906111f35750886001600160a01b0316816001600160a01b0316145b611244576040805162461bcd60e51b815260206004820152601c60248201527f44656c656761626c653a20496e76616c6964207369676e617475726500000000604482015290519081900360640190fd5b61124e8989613e2f565b505050505050505050565b7f000000000000000000000000000000000000000000000000000000000000000081565b600061128a848484613f34565b6112fa846112966139a2565b6112f585604051806060016040528060288152602001614680602891396001600160a01b038a166000908152600160205260408120906112d46139a2565b6001600160a01b03168152602081019190915260400160002054919061408f565b6139a6565b5060019392505050565b600a546001600160a01b031681565b7f000000000000000000000000000000000000000000000000000000000000000081565b60055460ff1690565b7f000000000000000000000000000000000000000000000000000000000000000081565b6000610aa36113716139a2565b846112f585600160006113826139a2565b6001600160a01b03908116825260208083019390935260409182016000908120918c168152925290205490613c62565b7f000000000000000000000000000000000000000000000000000000000000000081565b60007f00000000000000000000000000000000000000000000000000000000000000006fffffffffffffffffffffffffffffffff16421061145e576040805162461bcd60e51b815260206004820152600e60248201527f506f6f6c3a20546f6f206c617465000000000000000000000000000000000000604482015290519081900360640190fd5b73__$2849603f80b5b09a5f0b9fd2ec8a219afa$__63420df2f4611480611c5a565b611488611591565b856114c6427f00000000000000000000000000000000000000000000000000000000000000006fffffffffffffffffffffffffffffffff1603613b76565b604080517fffffffff0000000000000000000000000000000000000000000000000000000060e088901b1681526fffffffffffffffffffffffffffffffff958616600482015293851660248501529184166044840152909216606482015264220c523d72608482015268010d79435e50d7943560a4820152905160c4808301926020929190829003018186803b15801561155f57600080fd5b505af4158015611573573d6000803e3d6000fd5b505050506040513d602081101561158957600080fd5b505192915050565b6000611637610d426115a1610fd9565b600a54604080517f70a0823100000000000000000000000000000000000000000000000000000000815230600482015290516001600160a01b03909216916370a0823191602480820192602092909190829003018186803b15801561160557600080fd5b505afa158015611619573d6000803e3d6000fd5b505050506040513d602081101561162f57600080fd5b505190613c62565b905090565b6000836040518060400160405280601d81526020017f506f6f6c3a204f6e6c7920486f6c646572204f722044656c6567617465000000815250816001600160a01b0316336001600160a01b031614806116b857506001600160a01b038216600090815260076020908152604080832033845290915290205460ff165b81906117055760405162461bcd60e51b8152602060048201818152835160248401528351909283926044909101919085019080838360008315610b78578181015183820152602001610b60565b506000611711856121c4565b600a54604080517f23b872dd0000000000000000000000000000000000000000000000000000000081526001600160a01b038b811660048301523060248301526fffffffffffffffffffffffffffffffff8a16604483015291519394509116916323b872dd916064808201926020929091908290030181600087803b15801561179957600080fd5b505af11580156117ad573d6000803e3d6000fd5b505050506040513d60208110156117c357600080fd5b5050600954604080517fa9059cbb0000000000000000000000000000000000000000000000000000000081526001600160a01b0389811660048301526fffffffffffffffffffffffffffffffff851660248301529151919092169163a9059cbb9160448083019260209291908290030181600087803b15801561184557600080fd5b505af1158015611859573d6000803e3d6000fd5b505050506040513d602081101561186f57600080fd5b50506001600160a01b038087169088167f3f207773c457c66e004ab34e2ce7ae1fcafc7b4c3286f63997c87428014219157f00000000000000000000000000000000000000000000000000000000000000006118dc6fffffffffffffffffffffffffffffffff8616613db8565b6118f78a6fffffffffffffffffffffffffffffffff16613db8565b604080516fffffffffffffffffffffffffffffffff9094168452602084019290925260000382820152519081900360600190a39695505050505050565b6103b66903e800000000000000005b0481565b6001600160a01b031660009081526020819052604090205490565b6000836040518060400160405280601d81526020017f506f6f6c3a204f6e6c7920486f6c646572204f722044656c6567617465000000815250816001600160a01b0316336001600160a01b031614806119de57506001600160a01b038216600090815260076020908152604080832033845290915290205460ff165b8190611a2b5760405162461bcd60e51b8152602060048201818152835160248401528351909283926044909101919085019080838360008315610b78578181015183820152602001610b60565b506000611a3785611fdc565b600954604080517f23b872dd0000000000000000000000000000000000000000000000000000000081526001600160a01b038b811660048301523060248301526fffffffffffffffffffffffffffffffff8516604483015291519394509116916323b872dd916064808201926020929091908290030181600087803b158015611abf57600080fd5b505af1158015611ad3573d6000803e3d6000fd5b505050506040513d6020811015611ae957600080fd5b5050600a54604080517fa9059cbb0000000000000000000000000000000000000000000000000000000081526001600160a01b0389811660048301526fffffffffffffffffffffffffffffffff891660248301529151919092169163a9059cbb9160448083019260209291908290030181600087803b158015611b6b57600080fd5b505af1158015611b7f573d6000803e3d6000fd5b505050506040513d6020811015611b9557600080fd5b50506001600160a01b038087169088167f3f207773c457c66e004ab34e2ce7ae1fcafc7b4c3286f63997c87428014219157f0000000000000000000000000000000000000000000000000000000000000000611c026fffffffffffffffffffffffffffffffff8616613db8565b600003611c208a6fffffffffffffffffffffffffffffffff16613db8565b604080516fffffffffffffffffffffffffffffffff9094168452602084019290925282820152519081900360600190a39695505050505050565b600954604080517f70a082310000000000000000000000000000000000000000000000000000000081523060048201529051600092611637926001600160a01b03909116916370a0823191602480820192602092909190829003018186803b158015611cc557600080fd5b505afa158015611cd9573d6000803e3d6000fd5b505050506040513d6020811015611cef57600080fd5b5051613b76565b60086020526000908152604090205481565b60007f00000000000000000000000000000000000000000000000000000000000000006fffffffffffffffffffffffffffffffff164210611d90576040805162461bcd60e51b815260206004820152600e60248201527f506f6f6c3a20546f6f206c617465000000000000000000000000000000000000604482015290519081900360640190fd5b6000611d9a611c5a565b90506000611da6611591565b9050600073__$2849603f80b5b09a5f0b9fd2ec8a219afa$__631d385c1f848488611e04427f00000000000000000000000000000000000000000000000000000000000000006fffffffffffffffffffffffffffffffff1603613b76565b604080517fffffffff0000000000000000000000000000000000000000000000000000000060e088901b1681526fffffffffffffffffffffffffffffffff958616600482015293851660248501529184166044840152909216606482015264220c523d72608482015267f33333333333333360a4820152905160c4808301926020929190829003018186803b158015611e9c57600080fd5b505af4158015611eb0573d6000803e3d6000fd5b505050506040513d6020811015611ec657600080fd5b50519050611ed483866140e9565b6fffffffffffffffffffffffffffffffff16611ef08383613be1565b6fffffffffffffffffffffffffffffffff161015611f55576040805162461bcd60e51b815260206004820152601c60248201527f506f6f6c3a20667944616920726573657276657320746f6f206c6f7700000000604482015290519081900360640190fd5b949350505050565b60048054604080516020601f60027fffffffffffffffffffffffffffffffffffffffffffffffffffffffffffffffff610100600188161502019095169490940493840181900481028201810190925282815260609390929091830182828015610a855780601f10610a5a57610100808354040283529160200191610a85565b60007f00000000000000000000000000000000000000000000000000000000000000006fffffffffffffffffffffffffffffffff164210612064576040805162461bcd60e51b815260206004820152600e60248201527f506f6f6c3a20546f6f206c617465000000000000000000000000000000000000604482015290519081900360640190fd5b600061206e611c5a565b9050600061207a611591565b9050600073__$2849603f80b5b09a5f0b9fd2ec8a219afa$__63d536aadd8484886120d8427f00000000000000000000000000000000000000000000000000000000000000006fffffffffffffffffffffffffffffffff1603613b76565b604080517fffffffff0000000000000000000000000000000000000000000000000000000060e088901b1681526fffffffffffffffffffffffffffffffff958616600482015293851660248501529184166044840152909216606482015264220c523d72608482015267f33333333333333360a4820152905160c4808301926020929190829003018186803b15801561217057600080fd5b505af4158015612184573d6000803e3d6000fd5b505050506040513d602081101561219a57600080fd5b505190506121a883826140e9565b6fffffffffffffffffffffffffffffffff16611ef08387613be1565b60007f00000000000000000000000000000000000000000000000000000000000000006fffffffffffffffffffffffffffffffff16421061224c576040805162461bcd60e51b815260206004820152600e60248201527f506f6f6c3a20546f6f206c617465000000000000000000000000000000000000604482015290519081900360640190fd5b73__$2849603f80b5b09a5f0b9fd2ec8a219afa$__63e5cd1e73611480611c5a565b6000610aa361227b6139a2565b846112f58560405180606001604052806025815260200161471260259139600160006122a56139a2565b6001600160a01b03908116825260208083019390935260409182016000908120918d1681529252902054919061408f565b6000610aa36122e36139a2565b8484613f34565b6000836040518060400160405280601d81526020017f506f6f6c3a204f6e6c7920486f6c646572204f722044656c6567617465000000815250816001600160a01b0316336001600160a01b0316148061236657506001600160a01b038216600090815260076020908152604080832033845290915290205460ff165b81906123b35760405162461bcd60e51b8152602060048201818152835160248401528351909283926044909101919085019080838360008315610b78578181015183820152602001610b60565b5060006123bf85611d08565b600954604080517f23b872dd0000000000000000000000000000000000000000000000000000000081526001600160a01b038b811660048301523060248301526fffffffffffffffffffffffffffffffff8a16604483015291519394509116916323b872dd916064808201926020929091908290030181600087803b15801561244757600080fd5b505af115801561245b573d6000803e3d6000fd5b505050506040513d602081101561247157600080fd5b5050600a54604080517fa9059cbb0000000000000000000000000000000000000000000000000000000081526001600160a01b0389811660048301526fffffffffffffffffffffffffffffffff851660248301529151919092169163a9059cbb9160448083019260209291908290030181600087803b1580156124f357600080fd5b505af1158015612507573d6000803e3d6000fd5b505050506040513d602081101561251d57600080fd5b50506001600160a01b038087169088167f3f207773c457c66e004ab34e2ce7ae1fcafc7b4c3286f63997c87428014219157f000000000000000000000000000000000000000000000000000000000000000061258a6fffffffffffffffffffffffffffffffff8a16613db8565b600003611c20866fffffffffffffffffffffffffffffffff16613db8565b630784ce0068010000000000000000611943565b60066020526000908152604090205481565b6103e86903b60000000000000000611943565b7f000000000000000000000000000000000000000000000000000000000000000081565b6000836040518060400160405280601d81526020017f506f6f6c3a204f6e6c7920486f6c646572204f722044656c6567617465000000815250816001600160a01b0316336001600160a01b0316148061268157506001600160a01b038216600090815260076020908152604080832033845290915290205460ff165b81906126ce5760405162461bcd60e51b8152602060048201818152835160248401528351909283926044909101919085019080838360008315610b78578181015183820152602001610b60565b5060006126d9610fd9565b9050806126f1576126e985614158565b935050610fd0565b600954604080517f70a0823100000000000000000000000000000000000000000000000000000000815230600482015290516000926001600160a01b0316916370a08231916024808301926020929190829003018186803b15801561275557600080fd5b505afa158015612769573d6000803e3d6000fd5b505050506040513d602081101561277f57600080fd5b5051600a54604080517f70a0823100000000000000000000000000000000000000000000000000000000815230600482015290519293506000926001600160a01b03909216916370a0823191602480820192602092909190829003018186803b1580156127eb57600080fd5b505afa1580156127ff573d6000803e3d6000fd5b505050506040513d602081101561281557600080fd5b50519050600061282983610cfe868b613a92565b9050600061283b85610cfe8585613a92565b90506fffffffffffffffffffffffffffffffff612858858b613c62565b111561286357600080fd5b6fffffffffffffffffffffffffffffffff6128886128818584613c62565b8790613c62565b111561289357600080fd5b600954604080517f23b872dd0000000000000000000000000000000000000000000000000000000081526001600160a01b038e81166004830152306024830152604482018d9052915191909216916323b872dd9160648083019260209291908290030181600087803b15801561290857600080fd5b505af115801561291c573d6000803e3d6000fd5b505050506040513d602081101561293257600080fd5b505161293d57600080fd5b600a54604080517f23b872dd0000000000000000000000000000000000000000000000000000000081526001600160a01b038e8116600483015230602483015260448201859052915191909216916323b872dd9160648083019260209291908290030181600087803b1580156129b257600080fd5b505af11580156129c6573d6000803e3d6000fd5b505050506040513d60208110156129dc57600080fd5b50516129e757600080fd5b6129f18a8361437b565b896001600160a01b03168b6001600160a01b03167fd9b421596e3bc3caf78305bc0d270566916f58cd61b71c9c2a3d923a3ea3ea8b7f0000000000000000000000000000000000000000000000000000000000000000612a508d613db8565b600003612a5c86613db8565b600003612a6888613db8565b604080516fffffffffffffffffffffffffffffffff90951685526020850193909352838301919091526060830152519081900360800190a3509998505050505050505050565b6000836040518060400160405280601d81526020017f506f6f6c3a204f6e6c7920486f6c646572204f722044656c6567617465000000815250816001600160a01b0316336001600160a01b03161480612b2a57506001600160a01b038216600090815260076020908152604080832033845290915290205460ff165b8190612b775760405162461bcd60e51b8152602060048201818152835160248401528351909283926044909101919085019080838360008315610b78578181015183820152602001610b60565b506000612b83856113d6565b600a54604080517f23b872dd0000000000000000000000000000000000000000000000000000000081526001600160a01b038b811660048301523060248301526fffffffffffffffffffffffffffffffff8516604483015291519394509116916323b872dd916064808201926020929091908290030181600087803b158015612c0b57600080fd5b505af1158015612c1f573d6000803e3d6000fd5b505050506040513d6020811015612c3557600080fd5b5050600954604080517fa9059cbb0000000000000000000000000000000000000000000000000000000081526001600160a01b0389811660048301526fffffffffffffffffffffffffffffffff891660248301529151919092169163a9059cbb9160448083019260209291908290030181600087803b158015612cb757600080fd5b505af1158015612ccb573d6000803e3d6000fd5b505050506040513d6020811015612ce157600080fd5b50506001600160a01b038087169088167f3f207773c457c66e004ab34e2ce7ae1fcafc7b4c3286f63997c87428014219157f0000000000000000000000000000000000000000000000000000000000000000612d4e6fffffffffffffffffffffffffffffffff8a16613db8565b6118f7866fffffffffffffffffffffffffffffffff16613db8565b42841015612dbe576040805162461bcd60e51b815260206004820152601d60248201527f45524332305065726d69743a206578706972656420646561646c696e65000000604482015290519081900360640190fd5b6001600160a01b0380881660008181526008602090815260408083208054600180820190925582517f00000000000000000000000000000000000000000000000000000000000000008186015280840196909652958c166060860152608085018b905260a085019590955260c08085018a90528151808603909101815260e0850182528051908301207f19010000000000000000000000000000000000000000000000000000000000006101008601527f000000000000000000000000000000000000000000000000000000000000000061010286015261012280860182905282518087039091018152610142860180845281519185019190912090859052610162860180845281905260ff8a166101828701526101a286018990526101c2860188905291519095919491926101e28084019391927fffffffffffffffffffffffffffffffffffffffffffffffffffffffffffffffe081019281900390910190855afa158015612f32573d6000803e3d6000fd5b50506040517fffffffffffffffffffffffffffffffffffffffffffffffffffffffffffffffe001519150506001600160a01b03811615801590612f865750896001600160a01b0316816001600160a01b0316145b612fd7576040805162461bcd60e51b815260206004820152601e60248201527f45524332305065726d69743a20696e76616c6964207369676e61747572650000604482015290519081900360640190fd5b612fe28a8a8a6139a6565b50505050505050505050565b6001600160a01b03918216600090815260016020908152604080832093909416825291909152205490565b6130233382613e2f565b50565b600080846040518060400160405280601d81526020017f506f6f6c3a204f6e6c7920486f6c646572204f722044656c6567617465000000815250816001600160a01b0316336001600160a01b031614806130a357506001600160a01b038216600090815260076020908152604080832033845290915290205460ff165b81906130f05760405162461bcd60e51b8152602060048201818152835160248401528351909283926044909101919085019080838360008315610b78578181015183820152602001610b60565b5060006130fb610fd9565b905060008111613152576040805162461bcd60e51b815260206004820152601460248201527f506f6f6c3a20557365206d696e74206669727374000000000000000000000000604482015290519081900360640190fd5b600954604080517f70a0823100000000000000000000000000000000000000000000000000000000815230600482015290516000926001600160a01b0316916370a08231916024808301926020929190829003018186803b1580156131b657600080fd5b505afa1580156131ca573d6000803e3d6000fd5b505050506040513d60208110156131e057600080fd5b5051600a54604080517f70a0823100000000000000000000000000000000000000000000000000000000815230600482015290519293506000926001600160a01b03909216916370a0823191602480820192602092909190829003018186803b15801561324c57600080fd5b505afa158015613260573d6000803e3d6000fd5b505050506040513d602081101561327657600080fd5b50519050600061328d6132888a613b76565b611fdc565b6fffffffffffffffffffffffffffffffff169050888210156132f6576040805162461bcd60e51b815260206004820152601660248201527f506f6f6c3a204e6f7420656e6f75676820667944616900000000000000000000604482015290519081900360640190fd5b600061330f613305848c613b34565b610cfe878d613a92565b905061332985610cfe836133238887613c62565b90613a92565b91506fffffffffffffffffffffffffffffffff6133468584613c62565b1115613399576040805162461bcd60e51b815260206004820152601260248201527f506f6f6c3a20546f6f206d756368204461690000000000000000000000000000604482015290519081900360640190fd5b600954604080517f23b872dd0000000000000000000000000000000000000000000000000000000081526001600160a01b038f8116600483015230602483015260448201869052915191909216916323b872dd9160648083019260209291908290030181600087803b15801561340e57600080fd5b505af1158015613422573d6000803e3d6000fd5b505050506040513d602081101561343857600080fd5b505161348b576040805162461bcd60e51b815260206004820152601960248201527f506f6f6c3a20446169207472616e73666572206661696c656400000000000000604482015290519081900360640190fd5b6134958b8261437b565b8a6001600160a01b03168c6001600160a01b03167fd9b421596e3bc3caf78305bc0d270566916f58cd61b71c9c2a3d923a3ea3ea8b7f00000000000000000000000000000000000000000000000000000000000000006134f486613db8565b600003600061350287613db8565b604080516fffffffffffffffffffffffffffffffff90951685526020850193909352838301919091526060830152519081900360800190a3909b909a5098505050505050505050565b6009546001600160a01b031681565b600080846040518060400160405280601d81526020017f506f6f6c3a204f6e6c7920486f6c646572204f722044656c6567617465000000815250816001600160a01b0316336001600160a01b031614806135d757506001600160a01b038216600090815260076020908152604080832033845290915290205460ff165b81906136245760405162461bcd60e51b8152602060048201818152835160248401528351909283926044909101919085019080838360008315610b78578181015183820152602001610b60565b50600061362f610fd9565b600954604080517f70a0823100000000000000000000000000000000000000000000000000000000815230600482015290519293506000926001600160a01b03909216916370a0823191602480820192602092909190829003018186803b15801561369957600080fd5b505afa1580156136ad573d6000803e3d6000fd5b505050506040513d60208110156136c357600080fd5b5051600a54604080517f70a082310000000000000000000000000000000000000000000000000000000081523060048201529051929350600092839283926001600160a01b03909116916370a0823191602480820192602092909190829003018186803b15801561373357600080fd5b505afa158015613747573d6000803e3d6000fd5b505050506040513d602081101561375d57600080fd5b5051905061376f85610cfe8c87613a92565b925061377f85610cfe8c84613a92565b91505061378c8b8a613cbc565b600954604080517fa9059cbb0000000000000000000000000000000000000000000000000000000081526001600160a01b038d81166004830152602482018690529151919092169163a9059cbb9160448083019260209291908290030181600087803b1580156137fb57600080fd5b505af115801561380f573d6000803e3d6000fd5b505050506040513d602081101561382557600080fd5b5050600a54604080517fa9059cbb0000000000000000000000000000000000000000000000000000000081526001600160a01b038d81166004830152602482018590529151919092169163a9059cbb9160448083019260209291908290030181600087803b15801561389657600080fd5b505af11580156138aa573d6000803e3d6000fd5b505050506040513d60208110156138c057600080fd5b50506001600160a01b03808b16908c167fd9b421596e3bc3caf78305bc0d270566916f58cd61b71c9c2a3d923a3ea3ea8b7f000000000000000000000000000000000000000000000000000000000000000061391b86613db8565b61392486613db8565b61392d8f613db8565b604080516fffffffffffffffffffffffffffffffff90951685526020850193909352838301919091526000036060830152519081900360800190a3909a909950975050505050505050565b600760209081526000928352604080842090915290825290205460ff1681565b613023338261446b565b3390565b6001600160a01b0383166139eb5760405162461bcd60e51b81526004018080602001828103825260248152602001806146ee6024913960400191505060405180910390fd5b6001600160a01b038216613a305760405162461bcd60e51b81526004018080602001828103825260228152602001806146176022913960400191505060405180910390fd5b6001600160a01b03808416600081815260016020908152604080832094871680845294825291829020859055815185815291517f8c5be1e5ebec7d5bd14f71427d1e84f3dd0314c0f7b2291e5b200ac8c7c3b9259281900390910190a3505050565b600082613aa157506000610aa7565b82820282848281613aae57fe5b0414613aeb5760405162461bcd60e51b815260040180806020018281038252602181526020018061465f6021913960400191505060405180910390fd5b9392505050565b6000613aeb83836040518060400160405280601a81526020017f536166654d6174683a206469766973696f6e206279207a65726f000000000000815250614567565b6000613aeb83836040518060400160405280601e81526020017f536166654d6174683a207375627472616374696f6e206f766572666c6f77000081525061408f565b60006fffffffffffffffffffffffffffffffff821115613bdd576040805162461bcd60e51b815260206004820152601360248201527f506f6f6c3a2043617374206f766572666c6f7700000000000000000000000000604482015290519081900360640190fd5b5090565b6000826fffffffffffffffffffffffffffffffff16826fffffffffffffffffffffffffffffffff161115613c5c576040805162461bcd60e51b815260206004820152601c60248201527f506f6f6c3a20667944616920726573657276657320746f6f206c6f7700000000604482015290519081900360640190fd5b50900390565b600082820183811015613aeb576040805162461bcd60e51b815260206004820152601b60248201527f536166654d6174683a206164646974696f6e206f766572666c6f770000000000604482015290519081900360640190fd5b6001600160a01b038216613d015760405162461bcd60e51b81526004018080602001828103825260218152602001806146a86021913960400191505060405180910390fd5b613d0d826000836145cc565b613d4a816040518060600160405280602281526020016145f5602291396001600160a01b038516600090815260208190526040902054919061408f565b6001600160a01b038316600090815260208190526040902055600254613d709082613b34565b6002556040805182815290516000916001600160a01b038516917fddf252ad1be2c89b69c2b068fc378daa952ba7f163c4a11628f55a4df523b3ef9181900360200190a35050565b60007f7fffffffffffffffffffffffffffffffffffffffffffffffffffffffffffffff821115613bdd576040805162461bcd60e51b815260206004820152601360248201527f506f6f6c3a2043617374206f766572666c6f7700000000000000000000000000604482015290519081900360640190fd5b6001600160a01b0380831660009081526007602090815260408083209385168352929052205460ff1615613eaa576040805162461bcd60e51b815260206004820152601c60248201527f44656c656761626c653a20416c72656164792064656c65676174656400000000604482015290519081900360640190fd5b6001600160a01b0380831660008181526007602090815260408083209486168084529482529182902080547fffffffffffffffffffffffffffffffffffffffffffffffffffffffffffffff00166001908117909155825190815291517f045b0fef01772d2fbba53dbd38c9777806eac0865b00af43abcfbcaf50da92069281900390910190a35050565b6001600160a01b038316613f795760405162461bcd60e51b81526004018080602001828103825260258152602001806146c96025913960400191505060405180910390fd5b6001600160a01b038216613fbe5760405162461bcd60e51b81526004018080602001828103825260238152602001806145d26023913960400191505060405180910390fd5b613fc98383836145cc565b61400681604051806060016040528060268152602001614639602691396001600160a01b038616600090815260208190526040902054919061408f565b6001600160a01b0380851660009081526020819052604080822093909355908416815220546140359082613c62565b6001600160a01b038084166000818152602081815260409182902094909455805185815290519193928716927fddf252ad1be2c89b69c2b068fc378daa952ba7f163c4a11628f55a4df523b3ef92918290030190a3505050565b600081848411156140e15760405162461bcd60e51b8152602060048201818152835160248401528351909283926044909101919085019080838360008315610b78578181015183820152602001610b60565b505050900390565b60008282016fffffffffffffffffffffffffffffffff8085169082161015613aeb576040805162461bcd60e51b815260206004820152601b60248201527f506f6f6c3a2044616920726573657276657320746f6f20686967680000000000604482015290519081900360640190fd5b60007f00000000000000000000000000000000000000000000000000000000000000006fffffffffffffffffffffffffffffffff1642106141e0576040805162461bcd60e51b815260206004820152600e60248201527f506f6f6c3a20546f6f206c617465000000000000000000000000000000000000604482015290519081900360640190fd5b6141e8610fd9565b1561423a576040805162461bcd60e51b815260206004820152601960248201527f506f6f6c3a20416c726561647920696e697469616c697a656400000000000000604482015290519081900360640190fd5b600954604080517f23b872dd0000000000000000000000000000000000000000000000000000000081523360048201523060248201526044810185905290516001600160a01b03909216916323b872dd916064808201926020929091908290030181600087803b1580156142ad57600080fd5b505af11580156142c1573d6000803e3d6000fd5b505050506040513d60208110156142d757600080fd5b506142e49050338361437b565b33807fd9b421596e3bc3caf78305bc0d270566916f58cd61b71c9c2a3d923a3ea3ea8b7f000000000000000000000000000000000000000000000000000000000000000061433186613db8565b600003600061433f88613db8565b604080516fffffffffffffffffffffffffffffffff90951685526020850193909352838301919091526060830152519081900360800190a35090565b6001600160a01b0382166143d6576040805162461bcd60e51b815260206004820152601f60248201527f45524332303a206d696e7420746f20746865207a65726f206164647265737300604482015290519081900360640190fd5b6143e2600083836145cc565b6002546143ef9082613c62565b6002556001600160a01b0382166000908152602081905260409020546144159082613c62565b6001600160a01b0383166000818152602081815260408083209490945583518581529351929391927fddf252ad1be2c89b69c2b068fc378daa952ba7f163c4a11628f55a4df523b3ef9281900390910190a35050565b6001600160a01b0380831660009081526007602090815260408083209385168352929052205460ff166144e5576040805162461bcd60e51b815260206004820152601e60248201527f44656c656761626c653a20416c726561647920756e64656c6567617465640000604482015290519081900360640190fd5b6001600160a01b03808316600081815260076020908152604080832094861680845294825280832080547fffffffffffffffffffffffffffffffffffffffffffffffffffffffffffffff001690558051928352517f045b0fef01772d2fbba53dbd38c9777806eac0865b00af43abcfbcaf50da92069281900390910190a35050565b600081836145b65760405162461bcd60e51b8152602060048201818152835160248401528351909283926044909101919085019080838360008315610b78578181015183820152602001610b60565b5060008385816145c257fe5b0495945050505050565b50505056fe45524332303a207472616e7366657220746f20746865207a65726f206164647265737345524332303a206275726e20616d6f756e7420657863656564732062616c616e636545524332303a20617070726f766520746f20746865207a65726f206164647265737345524332303a207472616e7366657220616d6f756e7420657863656564732062616c616e6365536166654d6174683a206d756c7469706c69636174696f6e206f766572666c6f7745524332303a207472616e7366657220616d6f756e74206578636565647320616c6c6f77616e636545524332303a206275726e2066726f6d20746865207a65726f206164647265737345524332303a207472616e736665722066726f6d20746865207a65726f206164647265737345524332303a20617070726f76652066726f6d20746865207a65726f206164647265737345524332303a2064656372656173656420616c6c6f77616e63652062656c6f77207a65726fa26469706673582212209d016f1bae5b7efcfa822141e7c190b3ae17c5d2f32f20ceb07277720edbbdcc64736f6c63430007050033",
  "libraries": {
    "YieldMath": "0xb8c0D4Ee9380e476F409f496175D9082E6e1E58C"
  },
  "devdoc": {
    "details": "The Pool contract exchanges Dai for fyDai at a price defined by a specific formula.",
    "kind": "dev",
    "methods": {
      "addDelegate(address)": {
        "details": "Enable a delegate to act on the behalf of caller"
      },
      "addDelegateBySignature(address,address,uint256,uint8,bytes32,bytes32)": {
        "details": "Add a delegate through an encoded signature"
      },
      "allowance(address,address)": {
        "details": "See {IERC20-allowance}."
      },
      "approve(address,uint256)": {
        "details": "See {IERC20-approve}. Requirements: - `spender` cannot be the zero address."
      },
      "balanceOf(address)": {
        "details": "See {IERC20-balanceOf}."
      },
      "burn(address,address,uint256)": {
        "details": "Burn liquidity tokens in exchange for dai and fyDai. The liquidity provider needs to have called `pool.approve`.",
        "params": {
          "from": "Wallet providing the liquidity tokens. Must have approved the operator with `pool.addDelegate(operator)`.",
          "to": "Wallet receiving the dai and fyDai.",
          "tokensBurned": "Amount of liquidity tokens being burned."
        },
        "returns": {
          "_0": "The amount of reserve tokens returned (daiTokens, fyDaiTokens)."
        }
      },
      "burnForDai(address,address,uint256)": {
        "details": "Burn liquidity tokens in exchange for dai. The liquidity provider needs to have called `pool.approve`.",
        "params": {
          "from": "Wallet providing the liquidity tokens. Must have approved the operator with `pool.addDelegate(operator)`.",
          "to": "Wallet receiving the dai and fyDai.",
          "tokensBurned": "Amount of liquidity tokens being burned."
        },
        "returns": {
          "_0": "The amount of dai tokens returned."
        }
      },
      "buyDai(address,address,uint128)": {
        "details": "Buy Dai for fyDai The trader needs to have called `fyDai.approve`",
        "params": {
          "daiOut": "Amount of dai being bought that will be deposited in `to` wallet",
          "from": "Wallet providing the fyDai being sold. Must have approved the operator with `pool.addDelegate(operator)`.",
          "to": "Wallet receiving the dai being bought"
        },
        "returns": {
          "_0": "Amount of fyDai that will be taken from `from` wallet"
        }
      },
      "buyDaiPreview(uint128)": {
        "details": "Returns how much fyDai would be required to buy `daiOut` dai.",
        "params": {
          "daiOut": "Amount of dai hypothetically desired."
        },
        "returns": {
          "_0": "Amount of fyDai hypothetically required."
        }
      },
      "buyFYDai(address,address,uint128)": {
        "details": "Buy fyDai for dai The trader needs to have called `dai.approve`",
        "params": {
          "from": "Wallet providing the dai being sold. Must have approved the operator with `pool.addDelegate(operator)`.",
          "fyDaiOut": "Amount of fyDai being bought that will be deposited in `to` wallet",
          "to": "Wallet receiving the fyDai being bought"
        },
        "returns": {
          "_0": "Amount of dai that will be taken from `from` wallet"
        }
      },
      "buyFYDaiPreview(uint128)": {
        "details": "Returns how much dai would be required to buy `fyDaiOut` fyDai.",
        "params": {
          "fyDaiOut": "Amount of fyDai hypothetically desired."
        },
        "returns": {
          "_0": "Amount of Dai hypothetically required."
        }
      },
      "decimals()": {
        "details": "Returns the number of decimals used to get its user representation. For example, if `decimals` equals `2`, a balance of `505` tokens should be displayed to a user as `5,05` (`505 / 10 ** 2`). Tokens usually opt for a value of 18, imitating the relationship between Ether and Wei. This is the value {ERC20} uses, unless {_setupDecimals} is called. NOTE: This information is only used for _display_ purposes: it in no way affects any of the arithmetic of the contract, including {IERC20-balanceOf} and {IERC20-transfer}."
      },
      "decreaseAllowance(address,uint256)": {
        "details": "Atomically decreases the allowance granted to `spender` by the caller. This is an alternative to {approve} that can be used as a mitigation for problems described in {IERC20-approve}. Emits an {Approval} event indicating the updated allowance. Requirements: - `spender` cannot be the zero address. - `spender` must have allowance for the caller of at least `subtractedValue`."
      },
      "getDaiReserves()": {
        "details": "Returns the Dai reserves"
      },
      "getFYDaiReserves()": {
        "details": "Returns the \"virtual\" fyDai reserves"
      },
      "increaseAllowance(address,uint256)": {
        "details": "Atomically increases the allowance granted to `spender` by the caller. This is an alternative to {approve} that can be used as a mitigation for problems described in {IERC20-approve}. Emits an {Approval} event indicating the updated allowance. Requirements: - `spender` cannot be the zero address."
      },
      "mint(address,address,uint256)": {
        "details": "Mint liquidity tokens in exchange for adding dai and fyDai The liquidity provider needs to have called `dai.approve` and `fyDai.approve`.",
        "params": {
          "daiOffered": "Amount of `dai` being invested, an appropriate amount of `fyDai` to be invested alongside will be calculated and taken by this function from the caller.",
          "from": "Wallet providing the dai and fyDai. Must have approved the operator with `pool.addDelegate(operator)`.",
          "to": "Wallet receiving the minted liquidity tokens."
        },
        "returns": {
          "_0": "The amount of liquidity tokens minted."
        }
      },
      "mintWithDai(address,address,uint256)": {
        "details": "Mint liquidity tokens in exchange for adding only dai The liquidity provider needs to have called `dai.approve`.",
        "params": {
          "from": "Wallet providing the dai and fyDai. Must have approved the operator with `pool.addDelegate(operator)`.",
          "fyDaiToBuy": "Amount of `fyDai` being bought in the Pool, from this we calculate how much Dai it will be taken in.",
          "to": "Wallet receiving the minted liquidity tokens."
        },
        "returns": {
          "_0": "The amount of liquidity tokens minted."
        }
      },
      "name()": {
        "details": "Returns the name of the token."
      },
      "permit(address,address,uint256,uint256,uint8,bytes32,bytes32)": {
        "details": "See {IERC2612-permit}. In cases where the free option is not a concern, deadline can simply be set to uint(-1), so it should be seen as an optional parameter"
      },
      "revokeDelegate(address)": {
        "details": "Stop a delegate from acting on the behalf of caller"
      },
      "sellDai(address,address,uint128)": {
        "details": "Sell Dai for fyDai The trader needs to have called `dai.approve`",
        "params": {
          "daiIn": "Amount of dai being sold that will be taken from the user's wallet",
          "from": "Wallet providing the dai being sold. Must have approved the operator with `pool.addDelegate(operator)`.",
          "to": "Wallet receiving the fyDai being bought"
        },
        "returns": {
          "_0": "Amount of fyDai that will be deposited on `to` wallet"
        }
      },
      "sellDaiPreview(uint128)": {
        "details": "Returns how much fyDai would be obtained by selling `daiIn` dai",
        "params": {
          "daiIn": "Amount of dai hypothetically sold."
        },
        "returns": {
          "_0": "Amount of fyDai hypothetically bought."
        }
      },
      "sellFYDai(address,address,uint128)": {
        "details": "Sell fyDai for Dai The trader needs to have called `fyDai.approve`",
        "params": {
          "from": "Wallet providing the fyDai being sold. Must have approved the operator with `pool.addDelegate(operator)`.",
          "fyDaiIn": "Amount of fyDai being sold that will be taken from the user's wallet",
          "to": "Wallet receiving the dai being bought"
        },
        "returns": {
          "_0": "Amount of dai that will be deposited on `to` wallet"
        }
      },
      "sellFYDaiPreview(uint128)": {
        "details": "Returns how much dai would be obtained by selling `fyDaiIn` fyDai.",
        "params": {
          "fyDaiIn": "Amount of fyDai hypothetically sold."
        },
        "returns": {
          "_0": "Amount of Dai hypothetically bought."
        }
      },
      "symbol()": {
        "details": "Returns the symbol of the token, usually a shorter version of the name."
      },
      "totalSupply()": {
        "details": "See {IERC20-totalSupply}."
      },
      "transfer(address,uint256)": {
        "details": "See {IERC20-transfer}. Requirements: - `recipient` cannot be the zero address. - the caller must have a balance of at least `amount`."
      },
      "transferFrom(address,address,uint256)": {
        "details": "See {IERC20-transferFrom}. Emits an {Approval} event indicating the updated allowance. This is not required by the EIP. See the note at the beginning of {ERC20}. Requirements: - `sender` and `recipient` cannot be the zero address. - `sender` must have a balance of at least `amount`. - the caller must have allowance for ``sender``'s tokens of at least `amount`."
      }
    },
    "version": 1
  },
  "userdoc": {
    "kind": "user",
    "methods": {},
    "version": 1
  },
  "storageLayout": {
    "storage": [
      {
        "astId": 235,
        "contract": "contracts/Pool.sol:Pool",
        "label": "_balances",
        "offset": 0,
        "slot": "0",
        "type": "t_mapping(t_address,t_uint256)"
      },
      {
        "astId": 241,
        "contract": "contracts/Pool.sol:Pool",
        "label": "_allowances",
        "offset": 0,
        "slot": "1",
        "type": "t_mapping(t_address,t_mapping(t_address,t_uint256))"
      },
      {
        "astId": 243,
        "contract": "contracts/Pool.sol:Pool",
        "label": "_totalSupply",
        "offset": 0,
        "slot": "2",
        "type": "t_uint256"
      },
      {
        "astId": 245,
        "contract": "contracts/Pool.sol:Pool",
        "label": "_name",
        "offset": 0,
        "slot": "3",
        "type": "t_string_storage"
      },
      {
        "astId": 247,
        "contract": "contracts/Pool.sol:Pool",
        "label": "_symbol",
        "offset": 0,
        "slot": "4",
        "type": "t_string_storage"
      },
      {
        "astId": 249,
        "contract": "contracts/Pool.sol:Pool",
        "label": "_decimals",
        "offset": 0,
        "slot": "5",
        "type": "t_uint8"
      },
      {
        "astId": 7814,
        "contract": "contracts/Pool.sol:Pool",
        "label": "signatureCount",
        "offset": 0,
        "slot": "6",
        "type": "t_mapping(t_address,t_uint256)"
      },
      {
        "astId": 7820,
        "contract": "contracts/Pool.sol:Pool",
        "label": "delegated",
        "offset": 0,
        "slot": "7",
        "type": "t_mapping(t_address,t_mapping(t_address,t_bool))"
      },
      {
        "astId": 8068,
        "contract": "contracts/Pool.sol:Pool",
        "label": "nonces",
        "offset": 0,
        "slot": "8",
        "type": "t_mapping(t_address,t_uint256)"
      },
      {
        "astId": 3550,
        "contract": "contracts/Pool.sol:Pool",
        "label": "dai",
        "offset": 0,
        "slot": "9",
        "type": "t_contract(IERC20)799"
      },
      {
        "astId": 3553,
        "contract": "contracts/Pool.sol:Pool",
        "label": "fyDai",
        "offset": 0,
        "slot": "10",
        "type": "t_contract(IFYDai)8438"
      }
    ],
    "types": {
      "t_address": {
        "encoding": "inplace",
        "label": "address",
        "numberOfBytes": "20"
      },
      "t_bool": {
        "encoding": "inplace",
        "label": "bool",
        "numberOfBytes": "1"
      },
      "t_contract(IERC20)799": {
        "encoding": "inplace",
        "label": "contract IERC20",
        "numberOfBytes": "20"
      },
      "t_contract(IFYDai)8438": {
        "encoding": "inplace",
        "label": "contract IFYDai",
        "numberOfBytes": "20"
      },
      "t_mapping(t_address,t_bool)": {
        "encoding": "mapping",
        "key": "t_address",
        "label": "mapping(address => bool)",
        "numberOfBytes": "32",
        "value": "t_bool"
      },
      "t_mapping(t_address,t_mapping(t_address,t_bool))": {
        "encoding": "mapping",
        "key": "t_address",
        "label": "mapping(address => mapping(address => bool))",
        "numberOfBytes": "32",
        "value": "t_mapping(t_address,t_bool)"
      },
      "t_mapping(t_address,t_mapping(t_address,t_uint256))": {
        "encoding": "mapping",
        "key": "t_address",
        "label": "mapping(address => mapping(address => uint256))",
        "numberOfBytes": "32",
        "value": "t_mapping(t_address,t_uint256)"
      },
      "t_mapping(t_address,t_uint256)": {
        "encoding": "mapping",
        "key": "t_address",
        "label": "mapping(address => uint256)",
        "numberOfBytes": "32",
        "value": "t_uint256"
      },
      "t_string_storage": {
        "encoding": "bytes",
        "label": "string",
        "numberOfBytes": "32"
      },
      "t_uint256": {
        "encoding": "inplace",
        "label": "uint256",
        "numberOfBytes": "32"
      },
      "t_uint8": {
        "encoding": "inplace",
        "label": "uint8",
        "numberOfBytes": "1"
      }
    }
  }
}